:020000022000DC
:1060000000000120756302005D6302005F6302000F
:106010006163020063630200656302000000000028
:1060200000000000000000000000000067630200A4
:1060300069630200000000006B6302006D630200F0
:106040000D9602006F630200559A02006F63020012
:106050006F6302006F630200D19802006F63020059
:106060006F6302006F6302006F6302006F630200E0
:106070006F630200199B02006F6302006F630200EE
:106080006F630200157302006F6302006F6302000A
:106090006F6302006F630200510D03006F63020023
:1060A0006F6302006F6302006F6302006F630200A0
:1060B0006F6302006F630200000000000000000038
:1060C0006F6302006F6302006F6302006F63020080
:1060D0006F6302006F6302006F6302000000000044
:1060E00000000000000000000000000000000000B0
:1060F00000000000000000000000000000000000A0
:10610000000000000000000000000000000000008F
:10611000000000000000000000000000000000007F
:10612000000000000000000000000000000000006F
:10613000000000000000000000000000000000005F
:10614000000000000000000000000000000000004F
:10615000000000000000000000000000000000003F
:10616000000000000000000000000000000000002F
:10617000000000000000000000000000000000001F
:10618000000000000000000000000000000000000F
:1061900000000000000000000000000000000000FF
:1061A00000000000000000000000000000000000EF
:1061B00000000000000000000000000000000000DF
:1061C00000000000000000000000000000000000CF
:1061D00000000000000000000000000000000000BF
:1061E00000000000000000000000000000000000AF
:1061F000000000000000000000000000000000009F
:10620000354936480A1A02D0072291438D4634494F
:1062100034480A1A06D00722914381F309880222E2
:1062200082F3148830483149314A00F044F831484B
:106230003149324A00F03FF831483249324A00F0E1
:106240003AF832483249334A00F035F83248334997
:10625000334A00F030F833483349344A00F02BF821
:1062600033483449344A00F026F83448344900228F
:1062700000F02CF833483449002200F027F8334866
:106280003349091A082902DB002202604160314AC1
:1062900090471F481F49884205D00268043003B464
:1062A000904703BCF7E700208646EC46002000211B
:1062B000294A9047FEE7884207D0521A05D0037852
:1062C00001300B700131013AF9D17047884202D098
:1062D00002700130FAE770470000012000E0002062
:1062E000000001200000012010A60300E42B002084
:1062F0003C2C0020D0630200D0630200F04E03006B
:1063000010A60300E42B0020E42B0020CC50030057
:10631000CC500300CC500300CC500300CC50030001
:10632000CC500300CC500300CC50030010A6030057
:1063300068A603003C2C00203C2C00203C2C0020B4
:1063400070490020704900207049002070490020E9
:10635000706900209D6302008DB60200FEE7FEE733
:10636000FEE7FEE7FEE7FEE7FEE7FEE7FEE7FEE705
:1063700000F002B8FFF7FCBF0F484FF00701884359
:1063800085460E4880470E48016841F4700101605F
:10639000BFF34F8FBFF36F8FFFF732BF09480A4932
:1063A0000A4A884207D0521A05D0037801300B7090
:1063B0000131013AF9D1704700000120C9B802004B
:1063C00088ED00E0B8500300D02B0020E42B002023
:1063D000022003F0FBBB00002DE9F04781460D468B
:1063E00003F014FC0328044604D8012D04D025B37F
:1063F000022D2FD0BDE8F087194D47003A18A91893
:10640000AE5C4A7852B1DFF86880164842464FF4D5
:10641000804100F020FD08B988F800903B192B441A
:106420009A78114B1A55002EE4D0104B1B68002BA4
:10643000E0D03046BDE8F04718470A4800F023FD99
:10644000074B04EB440213449E78074B1B5DB34299
:10645000D0D1E8E7024B00EB40041C446678E2E749
:10646000A02C0020602C0020B92C0020B42C00208F
:106470003C2C002002210078FFF7AEBF08B5094B85
:106480001B7853B1002003F077FB012003F074FB6D
:106490000320BDE8084003F06FBBBDE8084003F0EF
:1064A00077BB00BF3D2C0020F8B57B4C2378054618
:1064B0001BB100232370FFF7E1FF172D00F2888046
:1064C000DFE805F00C17174354657680888D888DBA
:1064D000959A9A9A9A9AC4C9D1D9E4E4FFF7CEFF63
:1064E0006E4800F0D0FC6E4B002204461A70204625
:1064F000F8BD002003F026FBF8B1002003F03CFBC0
:10650000022D0CBF4FF4E1614FF47A61644B1D70B2
:106510004FF400404FF47A740025E0FB01454FF43E
:10652000FA620023204629460BF0FAF900220146C0
:106530005A48BDE8F84000F08EBC03F011FB022D74
:106540000CBFC8214FF4C871E0E7002003F0FAFA4D
:1065500040B1002003F010FB4FF44871504B032270
:106560001A70D5E703F0FCFAC821F7E7002003F022
:10657000E9FA38B1002003F0FFFA4FF47A61484B92
:106580000422EDE703F0ECFA4FF4C871F7E70020BE
:1065900003F0D8FA48B1002003F0EEFA404B052290
:1065A0001A7040F6CD410022C2E703F0D9FAF5E7B0
:1065B000002003F00BFB3A4B06221A70002240F237
:1065C0006661B5E7002003F0CBFA354B07221A705D
:1065D00000248CE70120207003F0F8FAEEE7012098
:1065E000207003F0F3FA00224FF40051A0E703F00B
:1065F000DEFA2B4B0C22EAE72A482B4E00F043FC34
:10660000D5F1110504461CD0D8B9012D13D0C823EB
:106610005D434FF400474FF47A7000214FF4FA6263
:106620000023C7FB05010BF07BF9224601461D48FC
:1066300000F011FC0446022003F092FA01233370AB
:1066400055E7022003F098FA0023F8E7FFF716FF5A
:10665000134B1222BBE7FFF711FF002003F080FA73
:106660000F4B1322B3E7FFF709FF012003F078FA7D
:106670000B4B1422ABE7FFF701FF002003F070FA89
:10668000012003F06DFA064B1522A0E703F08FFA04
:10669000034B1D709CE700BFB02C0020802C002015
:1066A000B82C0020402C00203D2C0020044B1B68FF
:1066B000DB0703D5034B1878FFF7F6BE704700BF22
:1066C000AC2C0020B82C0020032801D803F090BA8D
:1066D00000207047044B1B6813F0010301D0FFF743
:1066E000E3BE1846704700BFAC2C002038B51C4BE9
:1066F00018601C4B10F00204054619601AD01A4BA2
:106700001A480E221A700F22DA7010229A71112282
:106710005A72042140F2333200F02CFA044648B990
:1067200000F07EFA044628B90146114A114800F0EB
:1067300087FB0446EB0711D5012003F079FA6CB909
:1067400021460D4A0D4800F07BFB044630B90C4A47
:106750000C480121BDE8384000F072BB204638BD2E
:10676000AC2C0020B42C0020A02C0020CC50030026
:1067700075640200F0500300AD660200F45003009F
:10678000D1630200EC500300032813D8012A0BD177
:10679000012908D100F10E02D2B200EB40000C4BEF
:1067A0001A540020704700220129F6D04BB24BB199
:1067B000022901D007207047054B00EB4000184428
:1067C0004270EEE7024900EB400008448270E8E7BF
:1067D000A02C002008B5012202210020FFF7D4FFE1
:1067E00008B1072810D1072202210120FFF7CCFFB2
:1067F00008B1072808D100210A220846FFF7C4FF84
:1068000010B1072808BF002008BD00000388102B26
:1068100010B502D0112B1ED010BD1A4C2168B1B991
:1068200001220846FFF7B0FF08B1072824D107224C
:1068300002210120FFF7A8FF08B107281CD104227C
:1068400002210020FFF7A0FF08B1072814D1236818
:1068500001332360E0E70B4A1368013B1360002B10
:10686000DAD1FFF7B7FF0028D6D0074B1B68002B03
:10687000D2D0BDE810401847034B1B68002BE6D070
:106880009847E4E7C42C0020C02C00200D4B10B525
:1068900018600C4629B10120FFF716FF40B1022312
:1068A0002370094B1B6853B9BDE81040FFF792BF36
:1068B000FFF70AFF08B10B23F2E72070F1E7002091
:1068C00010BD00BFC02C0020C42C002004F0F2BD7D
:1068D0000021084604F0A2BD10F1360F0AD058B1CD
:1068E00048F2115248F2165310F1380F0CBF1046FF
:1068F0001846704748F21450704708B508461146CC
:1069000002F046FE002008BD37B50446002002F024
:10691000C1FD054678B90434204604F0D5FA009547
:106920002B462A460549204604F046FB03B0BDE845
:106930003040FFF7D1BF03B030BD00BFFB6802009D
:1069400008B5043004F0C5FA02F0D0FD002008BDFF
:1069500008B5043004F099FBBDE80840FFF7BCBF60
:1069600008B5114604301A4604F0C2FABDE80840E2
:10697000FFF7B2BFC30710B507D4F0234008054A9C
:10698000145C23401943115410BD0901C9B20F23EF
:10699000F4E700BFF82C002030B5094B1C78094BF8
:1069A000196800239C4202DC0022104630BD11F819
:1069B0003350854201EBC302F7D00133F2E700BF49
:1069C000C82C0020082D002070B504460D46FFF7A6
:1069D000E3FF30B1436823B129462046BDE870404B
:1069E000184770BD034B044819680022490800F09D
:1069F00032BA00BFCC2C0020D02C002010B5C0B281
:106A0000FFF7CAFF0446007802F058FF63785A1E69
:106A100053425341834208D1044BD3E9002313432B
:106A200003D1BDE81040FFF7DDBF10BDF02C002002
:106A300037B54308364AD35CC2074CBF1B0903F085
:106A40000F0304460D46042B37D8DFE803F0032676
:106A50002E3A3E0089B30121FFF78CFF00230DF190
:106A600007008DF8073000F0E9FA0122A4F12003B5
:106A7000C4F12000274902FA03F322FA00F003438D
:106A800002FA04F4D1E9002014430343C1E90043AE
:106A90009DF8070000F0F6FA0FE0002914BF02216C
:106AA00000212046FFF766FF07E041B10321FFF711
:106AB00061FF01212046FFF787FF03B030BD0121B0
:106AC000EFE70029F9D10421EBE709B10321E8E759
:106AD000FFF750FF29462046FFF776FF0DF107002C
:106AE0008DF8075000F0AAFA0122A4F12003C4F1A6
:106AF0002000084902FA03F322FA00F0034302FAE5
:106B000004F4D1E9002022EA040420EA0303BDE7EB
:106B1000F82C0020F02C00202DE9F041124E134FEC
:106B200000243378A34208DC114BD3E9002313433C
:106B300018D0BDE8F041FFF755BF3D6805EBC4082C
:106B400015F8340002F0BAFE98F801104B1E5942B5
:106B500059410A1A514215F834005141FFF768FFB4
:106B60000134DEE7BDE8F081C82C0020082D0020AC
:106B7000F02C0020092AF7B505460C4616463DD9EB
:106B800002F0D8FDD8B11E4B1E481D601E4B1F4F92
:106B90001C701F4B002110221E600BF007F81D4BCC
:106BA00000200021C3E90001013CE4B20326FF2CD0
:106BB0000BD1194A1948002100F042F903E002F014
:106BC00081FD0028DFD003B0F0BD20B29DF8063073
:106BD0008DF8046005EBC00223F007038DF8063042
:106BE00001A9937815F830008DF805303A4602F087
:106BF000ABFD013CE4B20028D9D0E4E70720E2E78E
:106C0000082D0020F82C0020C82C0020FD6902006F
:106C1000CC2C0020F02C0020196B0200F85003004F
:106C200070B5084D084E00242B789C4201D30020FB
:106C300070BD3368012113F8340002F0F9FD01340E
:106C4000F2E700BFC82C0020082D00201FB500214E
:106C5000039001AA44F20100CDE9011100F004F80B
:106C600005B05DF804FB000010B572B603F08CFBB4
:106C700003F0BCF90028FBD1104B114C1149E41A68
:106C8000E408240444F0010003F01AFB0E4B1B68D7
:106C9000DB0700D500BE0D4944F0020003F010FBF5
:106CA000BFF34F8F0A490B4BCA6802F4E0621343EB
:106CB000CB60BFF34F8F00BFFDE700BFB04F0300B5
:106CC000E04F030007510300F0ED00E01351030013
:106CD00000ED00E00400FA05D0E90223D1E9020149
:106CE000994208BF90422CBF01200020704700004D
:106CF0002DE900480C4800F0F8FA0C4BD3E90023CA
:106D000012EB000B43F1000C094BD3E900239C4527
:106D100008BF93455846614603D21BF180704CF181
:106D20000001BDE8008800BFE42B0020102D0020EA
:106D3000882D002037B505460C460A4801A901F008
:106D400098FA60B10570446001A9064801F0BBFAE9
:106D500018B1054800F0CEFA002003B030BD042081
:106D6000FBE700BF742D0020E42B0020194B1B789B
:106D70002DE9304804461BB900252846BDE8308877
:106D80000028F9D0037F03F0FF05002BF4D0FFF7B4
:106D9000AFFFD4E90223994208BF904215D323697B
:106DA00003B92377D4E90530984721690029E3D056
:106DB000237F03F0FF05002BDED0D4E9022312EB82
:106DC000010B43F1000CC4E902BC2146024802F069
:106DD0002CFAD2E7182D00202451030013B5114BD3
:106DE00011491868019008235822104801F00CFA44
:106DF000044698B90E4A0F4801A900F067F9044605
:106E000060B901210B4800F053FA01230A4A0948EE
:106E1000194600F0B9F9094B01221A70204602B058
:106E200010BD00BF205103001C2D0020742D002038
:106E3000A96E0200E42B0020FFFF7F00182D002028
:106E40003AB103685A614A1E51425141196100200A
:106E500070470720704738B5037F04460D4683B955
:106E60008261FFF745FF421941F10003C4E90223A3
:106E7000236903B1256121460020BDE83840FFF7B2
:106E800059BF002038BD0023014603770120FFF7DA
:106E900051BF401A20F07F4070470000014800F0C9
:106EA00024BA00BFE42B00202DE9F04F85B007463F
:106EB00000F006FA40B1594AD2E9003113F180736B
:106EC00041F10001C2E900310021384600F007FA23
:106ED00038B1534C236823B12068FFF747FF0023E4
:106EE00023600121384600F0FAF920B1FFF700FFD6
:106EF0004C4BC3E9000103A94B48494D4B4C4C4E48
:106F000001F0F1F9002845D1DFF820A1444CDFF869
:106F100028B1504602F09FF92368002875D07BB154
:106F20002368D0E90201D3E90223994208BF9042C5
:106F30002DD223681B7F1BB12168504602F075F9E2
:106F4000504602F082F9D0E9026305460193FFF74B
:106F5000CFFE019BB6EB000863EB0109B8F1010F0E
:106F600079F1000344DB334EB0453FD9FFF796FF7C
:106F700082194FF496030021584600F025F90028A5
:106F80003ED1236813B9384600F0F6F8256005B005
:106F9000BDE8F08F0378012B1DD05BB1022B11D11E
:106FA0004FF0000A204602F050F9002833D080F854
:106FB0001CA0F7E741680B7F23B901230B7720461C
:106FC00002F033F903A9184801F0B8F903A91648EB
:106FD00001F089F996E741682B68994202D10023B4
:106FE0002B60EFE7204602F039F9EBE7AA68C0E72B
:106FF0000021584600F069F92846FFF7B7FE01E086
:107000000D28F9D00023236083E7002BBFD1384639
:1070100000F0B6F8BBE701233370D3E7102D002052
:10702000902D0020882D0020742D00202451030075
:10703000182D0020FFFFB400E42B002070B5EFF303
:10704000108672B60C4A946801239CB993600B4B6E
:107050000B4DD3F8801029401160C3F88050D3F84D
:10706000841051604FF0FF32C3F88420047006B9D9
:1070700062B670BD0370FAE7942D002000E100E0D5
:10708000FC06FFBD084B9A6810B55AB150B9EFF332
:10709000108172B6054A1C6814605C685460986080
:1070A00001B962B610BD00BF942D002000E100E0E0
:1070B000435882B03BB10023435043580193019B96
:1070C000012002B070471846FBE70000F8B5224BDC
:1070D0004679224D43F82620214A224BF7009B1A7D
:1070E000EA19DB0812791B0432B143F002001E4991
:1070F00003F0E6F80820F8BD02680C88C2F80845DD
:1071000090F904208978002AA8BF02F1604CD4B21B
:10711000BABF04F00F0EDFF858C00CF5614C4FEA0F
:107120004111C9B2B4BF0CF80E108CF8001352090B
:107130000121DFF840C004F01F042F4401FA04F4D9
:107140004CF82240397145F83600084943F00300F5
:1071500003F0B6F80020CEE7A82D0020A02D0020D7
:10716000B04F0300F04F0300465103006851030085
:1071700014ED00E000E100E0036801221A607047AE
:10718000036801225A60704773B501F15005AD00E4
:107190000068ADB24FF480348C400026C0F808433C
:1071A000C0F84843465101F5A8714559019522F0B0
:1071B0007F42019D40F82120C0F844430BB1C0F844
:1071C000044302B070BD00002DE9F74F8846994690
:1071D0004FF48036036808F150058E404FEA880A64
:1071E000AD00C3F84863ADB2C3F80863074603EBCC
:1071F0000A00D3F804154FF0000B22F07F44D0F8BA
:107200004025C0F8401543F805B05B590093009B3A
:10721000531A23F07F43012B0BD1244B4FF4806092
:1072200043F0010398473B6843F805B05B5901936D
:10723000019B3868D0F80455C0F84463631B23F001
:107240007F43012B1AD108F5A878184B013440F878
:10725000284043F001034FF4806098473B68D3F81F
:1072600004359D4208D13B680020C3F84463C3F84D
:10727000046303B0BDE8F08F0D20FAE78244C9F142
:10728000FF19CAF84045D0F80435E21A013A22F055
:107290007F4209F57F499145EED3002AE3D10134BD
:1072A000CAF84045D0F804259342DBE7405103007B
:1072B00003680222C3F8442309B1C3F804237047CA
:1072C0004FF482710068FFF7F3BE4FF4803303FA86
:1072D00001F10368C3F84813C3F80813704750312D
:1072E000890089B20068FFF7E3BE0368D3F804059C
:1072F0007047000090F9043001215A0903F01F0380
:1073000001FA03F34032024941F82230704700BFCE
:1073100000E100E0024B034A1B681068184700BFF9
:10732000A82D0020A02D002070B5064D0646002493
:1073300055F8043B0BB1304698470134042CF7D183
:1073400070BD00BFB82D0020033080B240F2FE3384
:10735000984230B51FD8134B1A783AB91C895D8909
:107360002C440444A4B2B4F5806F0AD91A7DAAB99A
:107370009A8BDC8B2244024492B2B2F5806F0DD816
:1073800001220A801446142202FB04335A89104455
:107390005881002030BD48F20860FBE748F20660E3
:1073A000F8E700BFEC2D00200B4A0C4B518814204D
:1073B00000FB0131CB6833B9042049681070012209
:1073C000074801F05DBB05230649137002238B803B
:1073D000012200230968F3E7D02D0020EC2D0020C6
:1073E000D02B0020B42E002007B5002305490093C0
:1073F000054A09680548082301F0ACFA03B05DF8B6
:1074000004FB00BFB42E002088510300D02B0020C5
:1074100007B50023009301460823034A034801F0FF
:1074200099FA03B05DF804FB80510300D02B0020D3
:1074300013B500230C46009301460423074A08486D
:1074400001F088FA38B9074B142202FB04340123F7
:10745000237402B010BD48F20D60FAE77C510300BE
:10746000D02B0020EC2D002037B50A480A4B42688B
:107470009C88196853880325033305709BB200204C
:1074800000909B0001EB8401044801F063FA03B013
:1074900030BD00BFD02D0020B42E0020D02B002006
:1074A00010B50146044800F0E4FE1C220446002109
:1074B0000AF07CFB204610BDA02E002068B10268B7
:1074C000084B9A4209D14068074B984207D00133D4
:1074D00098420CBF01200320704703207047002012
:1074E000704700BFDEC0ADDEFE011EF143880333EE
:1074F00000EB830399420BD382884FF6FF739A42C5
:1075000008D0038833B18068431C58425841704703
:1075100002207047012070472DE9F8430223DFF86D
:1075200060800B800D46174600F5805600F1080478
:107530004FF00109B4420FD2236801330CD0314619
:107540002046FFF7D3FF48B10FB187F8009002281B
:107550000BD14FF480632B80BDE8F883A368D8F883
:107560000020934201D9C8F800302B886288033389
:1075700013442B806388033304EB8304DAE700BFF2
:10758000E42D0020154A142303FB002070B50B687E
:1075900044680D4604F58056ABB15C88033403EBB8
:1075A0008404B4420DD2236801330AD03146204608
:1075B000FFF79CFF01280BD010F0FF0F05D0022829
:1075C000EFD1002003E00834EBE72C60012070BD10
:1075D0006388033304EB8304E3E700BFEC2D002052
:1075E000436873B504460D4673B3244AD1688B4291
:1075F0002AD31269934227D813F0030224D12049D9
:107600000089098988421FD12068996888421BD166
:107610001C494868834203D900F5805083420ED349
:107620008A6993420DD902F58052934209D201230F
:107630002B800020B0FA80F0400902B070BD1346E4
:10764000F6E748F20960F5E700232B801E46019615
:1076500001A92888FFF796FF30B92B8801339BB228
:10766000012B2B80F3D9E8E7019B226899689142AE
:10767000EED16360024B1B892381DEE7D02B002013
:10768000D02D0020EC2D00202DE9F8431C461D4B89
:107690001B7806460F46154673B382B37CB3DFF8FA
:1076A0006C804FF01409A388012B02D948F20960BD
:1076B00020E009FB03F318F803302BB92146A0881A
:1076C000FFF760FF20B92060A3880133A380EAE7B9
:1076D00023681EB1998832889142EFD11FB1198871
:1076E0003A889142EAD19A68C5E90023064B1B8982
:1076F0002B810020BDE8F88348F20160FAE748F2E8
:107700000460F7E7C82D0020D02D0020EC2D0020CC
:1077100008B5074B191D5888FFF734FF18B1BDE8AD
:107720000840FFF7A1BEBDE80840FFF73DBE00BF1F
:10773000D02D00202DE9F04FA34FDFF8B09289B093
:107740000646B8463B6823B94946A04800F0CBFD41
:107750003860D8F8005029784B1E052B00F2FE80C7
:10776000DFE813F0060060006000F200F200640140
:107770002EB1974B00225A604FF40644F0E02B796B
:10778000032B1DD8DFE803F015022B3691490B7847
:10779000022B08461AD00B7D022B4FF0010317D1A4
:1077A00014225343C2180020C8545068FFF730FE1B
:1077B00003E001232B71FFF717FE002800F0BE80C5
:1077C000834B00225A6048F20D64C9E00023E7E7CA
:1077D0007F4A13700023536041F61D54C0E07E4978
:1077E0007E48002302222B718A800122096801F061
:1077F00047F9E2E7784C00262E712068754DFFF7B7
:1078000007FE774BD4F800C05A8814235343EA1874
:10781000EE5451682160A188C2F804C0118102228F
:10782000A280CAE7B5F814A0AA7DDFF8A8B1AEB16E
:10783000022AEB8806D9142101FB0AB1DA1C088957
:1078400002440A81142202FB0ABAC3F57F43BAF844
:107850000A20FD331344AAF80A308DE7142303FBF2
:107860000AB318895C6804EB8004062A69D8DFE84B
:1078700002F0274E36441D5A040041F61D54AA7DDD
:10788000EB88022A06D9142101FB0AB1DA1C088907
:1078900002440A81142202FB0ABAC3F57F43BAF8F4
:1078A0000A20FD331344AAF80A3059E04D484E49E6
:1078B00000234360AB690360FFF792FE002874D099
:1078C0000223AB75002300930423EA1821464348A2
:1078D00001F040F8002831D048F20D64CFE72B6961
:1078E000002B14BF03230123AB750023009305F184
:1078F0000C02042304F10801E9E70123AB7500221F
:10790000EB8800929B002A6904F10C01DFE7032950
:107910000CBF05230623AB7500230093042305F158
:107920000802E118D3E70623AB752F4B19882D4BBE
:107930005868FFF77DFD04460028A0D109B0BDE8D6
:10794000F08F48F20E649AE7002E7FF415AF2B7982
:10795000012B4DD0EBB1022B3FF43EAF48F20E6449
:107960001422002103A80AF021F941F61D539C427C
:1079700008BF0024D8F8003004941A78023A042A88
:1079800000F20881DFE812F0E900F500180120019B
:10799000270102232B710DF10A01EB68039303A861
:1079A000CDE90466FFF71CFE10B948F20964D7E779
:1079B0000498BDF80A108388EB8003882B81FFF7B9
:1079C00037FD044629E000BFE82D0020A02E00204E
:1079D000C82D0020EC2D0020B42E0020D02B00203C
:1079E000D02D0020AC2D0020C02E0020E02D002046
:1079F000DFF800A203AA53463146A81DFFF744FE54
:107A0000044668B9BAF804100498FFF711FD04465B
:107A100048F209639C423FF4DFAE002CA0D18DE711
:107A20000822314650460AF0C1F8F1E7002E7FF4F3
:107A3000A3AE6B4B1A7BAAB11E731A78013A062AC1
:107A40008CD801A151F822F0EF7A0200157B0200D8
:107A5000337B0200397B02005D7902003F7B02002C
:107A6000517B02001A78072AE7D801A151F822F0C9
:107A7000917A02003B7A02003B7A0200B77A020058
:107A8000CB7A0200EB7A0200EB7A0200B37A0200B2
:107A90001A89544901321A8100225A801A730A78CD
:107AA000B2FA82F252099A720A7DB2FA82F252094D
:107AB000DA72012207E04C4958688A88408803320C
:107AC00002448A8002221A70B7E7464C5A88464917
:107AD000142505FB024208685468506088881081AC
:107AE00002228A800C600622EDE70722EBE79A7AF1
:107AF00032B9DA7A8AB900221A705A805A606BE673
:107B0000384900229A72CA68002AF2D1097C0029F9
:107B1000EFD05A80FFF7FCFD53E70022DA72314ABA
:107B2000116A0029E7D192F82420002AE3D001222B
:107B3000EFE7FFF799FC44E7FFF736FC41E7294AF6
:107B40005B88142101FB03235868FFF761FC38E7C9
:107B500000225A60FFF748FC33E701228DF80C2021
:107B60001A89ADF818209A88DB68ADF81A200593B9
:107B700010E002228DF80C201A89ADF818209A889E
:107B8000ADF81A20DA689B7D05929A1F5342534143
:107B90008DF81C3003A8FFF7C7FB002649461348A1
:107BA000C8F8006000F0CAFB0121114800F079FC20
:107BB00000287FF4C7ADC1E603228DF80C20DA88D7
:107BC000ADF818201A89CFE70422DB888DF80C2045
:107BD000ADF81830DEE705238DF80C30DAE700BF8A
:107BE000D02D0020EC2D0020B42E0020A02E00204F
:107BF000B02E0020C42E00204068FFF79BBD00007F
:107C000008B50121044800F036FC18B9BDE8084069
:107C1000FFF790BD08BD00BFB02E00202DE9F34155
:107C20009846374B1B7806460D46002B5CD0002942
:107C30005DD009884FF6FF7399425BD06B88002BAB
:107C400058D06B689B0758D14AB92F890DF10201B2
:107C50003846FFF779FB30B102B0BDE8F0811388F8
:107C60005788ADF8023001A8FFF71AFC044660B946
:107C7000BDF80230234A142101FB0323588903383D
:107C8000C01B588148F20760E6E700238375BDF802
:107C9000023083826B68036180F8008001211A48FA
:107CA00000F0F4FB2B882381B8F1030F6B88A380CD
:107CB00004BF0423A3754FF0000508BF3368E060DC
:107CC00008BFA361E780658101A9104800F0FBFAB5
:107CD00036B1E36833600E4B75601B89B572338132
:107CE000FFF78EFF0020B7E748F20160B4E748F2E3
:107CF0000460B1E748F20360AEE748F20260ABE728
:107D0000C82D0020EC2D0020E42D0020A02E002006
:107D1000D02D002008B5084B1A68042A09D019682C
:107D2000064A42F821000121184600F0AFFB00206E
:107D300008BD48F20B60FBE7BC2E0020B82D0020E8
:107D40002DE9F04F89B01422002103A809F02EFF7D
:107D5000784A137803F0FF01009190463BB103A8E5
:107D6000FFF7E2FA0027384609B0BDE8F08F101D92
:107D700000F0A2FB0028F5D140F6F8734FF08052D6
:107D80001B685C1C08BF6C4B6C4C08BF1B681169FE
:107D90005269581C08BF02FB01F323610022A3F5BE
:107DA00040536749E360204600F0A0FD0194074678
:107DB0000028D8D11C238C2262496348DFF89CB18B
:107DC00000F022FA3D46BA464FF003093C46019BBB
:107DD000DE6856443046FFF771FB012860D042B29E
:107DE000002A4AD0032827D13268531C02D0574BAF
:107DF0009A4234D1321D06F58051106801302ED1DF
:107E000004329142F9D1DBF800203AB90222012371
:107E1000CBF80060ABF8042000930BE0142262431F
:107E20004B4B0220991898544A4A4E6054800134B2
:107E30000881A4B245F001050AF5805ABAF5405F01
:107E4000C5D1B9F1010F98BF0025EDB2022D03D0C5
:107E5000062D44D0002D4CD148F20A6783E73C49F7
:107E600014226243881809F1FF39466003208854C0
:107E70001FFA89F90134A4B2DEE7354914206043C2
:107E800001EB000C0A5400F1100208300A44CCF84F
:107E9000046001443046FFF73FFB45F00205E9E787
:107EA000009B6BB12A4B142262439918022098540C
:107EB000DBF800204A60274A088154800134A4B2CC
:107EC00000222549CBF800603046FFF725FBBBF8C0
:107ED0000420022A0CBF042208221543ACE7012328
:107EE00088F8003003A80023C8F80430FFF71CFA14
:107EF00039E702A8FFF7D4FAC8B10123013D0370A6
:107F00000A2D09D8DFE805F0060806080708070863
:107F10000F110F000023037102A90B4800F0D3F9E1
:107F2000FFF76EFE1FE70323F5E70223F3E748F2AE
:107F3000076718E7C82D002014100010D02B002070
:107F400084530300142E0020A02E0020DEC0ADDEDE
:107F5000EC2D0020D02D0020B82E0020B42E0020C3
:107F600073B50D460446C8B1C1B10DF10601FFF766
:107F700037FBB0B10C4BBDF806006668142202FB5B
:107F8000003001210C3000F081FA63682E600C3360
:107F90006B600123A372002002B070BD48F2046040
:107FA000FAE748F20960F7E7EC2D002013B5044624
:107FB000A8B10DF10601FFF713FB98B10C4ABDF80B
:107FC0000630142101FB0323DA6872B1A27A62B190
:107FD000DA680020013ADA60A07202B010BD48F2FF
:107FE0000460FAE748F20960F7E748F20560F4E751
:107FF000EC2D002002230022FFF710BE18B103234E
:108000000022FFF70BBE48F204607047114B1B784B
:1080100013B50446ABB14FF6FF73984214D001A8D4
:10802000FFF73EFA98B10523037001230371C48062
:1080300001A9094800F047F9FFF7E2FD002002B06E
:1080400010BD48F20160FAE748F20360F7E748F232
:108050000760F4E7C82D0020A02E00200F4B1B78EE
:1080600007B5A3B101A8FFF71BFA98B10623037067
:1080700001A90B4800F027F90A4B1A780AB101222E
:108080001A73FFF7BDFD002003B05DF804FB48F252
:108090000160F9E748F20760F6E700BFC82D00204D
:1080A000A02E0020D02D002007B5ADF80600ADF8B9
:1080B00004100DF1060001A9FFF7E6FA03B05DF820
:1080C00004FB07B51346ADF806000A4600200DF183
:1080D0000601FFF7D9FA03B05DF804FB07B51346B4
:1080E000ADF806000A460DF106000021FFF7CCFAB4
:1080F00003B05DF804FB20B119B103680B600020E8
:10810000704748F2046070472DE9F84F3C4B1B78EC
:108110000446002B6ED000286FD012220021DFF819
:10812000E4A009F043FD032323804FF0000BD04669
:1081300014274FF00109DAF80410BAF80A50BAF817
:1081400008600846FFF7BAF9032808BF2388628849
:1081500004BF03F1FF33238007FB0B832E44DB684E
:108160001344638023891D4463892581B6B2334457
:108170006381C6F58066A389B6B2B34238BFA681D3
:1081800001F1080501F58056AE4217D92B6801337D
:1081900014D031462846FFF7A9F9012819D010F06C
:1081A000FF0F23D00228EFD1E38884F81090761BCC
:1081B000E589013305EBA605E380E5810AF1140AA0
:1081C000BBF1000F02D00020BDE8F88F4FF0010B8B
:1081D000B1E7E3880133E380E3896A88033313441A
:1081E000E3816B88033305EB8305CDE7A388013377
:1081F000A380F6E748F20160E6E748F20460E3E7AF
:10820000C82D0020EC2D002010B561B1B2FBF3F4B5
:1082100003FB1424A4B244B9C0E900148460828131
:10822000C381204610BD0E20FCE70920FAE782B08A
:1082300050E8022FC188B2EB324F4FF0000317BF56
:1082400092B241EA014142EA014104E04268B2EBE4
:10825000324F08BF012340E80212002AE8D18DF80E
:1082600007309DF80730002B0CBF1120002002B012
:10827000704737B550E8013F9DB2C48925448489D1
:10828000A54228BF2D1B0489A54202BFBFF32F8F33
:10829000002207E0C5EA030540E80154002CE9D1BB
:1082A0004FF001028DF803200193019B9DF80320FC
:1082B0000B6002F0FF0322B10B880068184403B082
:1082C00030BD1846FBE70A884B889A4209D150E82E
:1082D000012FC2EA024240E80123002BF7D101201E
:1082E00070470020704737B550E8023F1FFAA3F5EA
:1082F000C488A54202BFBFF32F8F00220DE0C489BE
:1083000025448489A54228BF2D1BC3EA054540E8C2
:108310000254002CE8D14FF001028DF803200193A4
:10832000019B9DF803200B6002F0FF0322B14B88F4
:108330000068184403B030BD1846FBE70A884B8834
:108340009A4209D150E8022FC2EA224240E80223B1
:10835000002BF7D1012070470020704701F01F0269
:108360004B090121914000EB830000F063B84B09F9
:1083700010B501F01F040121A14000EB830000F0C3
:108380004EF8E04000F0010010BD01F01F03012293
:108390009A404B0900EB8300D14300F061B84B09D0
:1083A00001F01F0150F82300C84000F001007047A1
:1083B0002DE9F0474E1E760980460F46013600250E
:1083C00058F8254008EB8509E44394FAA4F4B4FA7C
:1083D00084F44FEA451A202C06D10135AE42EFD87D
:1083E0003C462046BDE8F0875444A742F5D92146D3
:1083F0004046FFF7BCFF0028F3D0D9F80040E44323
:1084000094FAA4F4B4FA84F4E5E750E8002F0B469C
:1084100040E8003C9CF0000FF7D11046704750E850
:10842000002F42EA010340E8003C9CF0000FF6D127
:108430001046704750E8003F43EA010240E8002C34
:108440009CF0000FF6D11046704750E8002F02EA6A
:10845000010340E8003C9CF0000FF6D11046704745
:1084600050E8003F03EA010240E8002C9CF0000FB6
:10847000F6D11046704750E8002F02EB010340E8A8
:10848000003C9CF0000FF6D11046704750E8003FCA
:1084900003EB010240E8002C9CF0000FF6D11046DF
:1084A000704750E8003FA3EB010240E8002C9CF02D
:1084B000000FF6D1104670470121FFF7B0BF012130
:1084C000FFF7B8BF0021FFF7C0BF10B590B1D0E9EA
:1084D000012301689B1ADBB20A60013BDBB2FF2B70
:1084E000026802D10020107110BD11684C1C14608C
:1084F0000B70F2E70E20F7E737B5054600240DF1C3
:1085000007008DF80740FEF799FD2A686B6811682F
:1085100099420ED9481E106011F8014CEB68298A67
:1085200001FB0434AB6811791B1ADBB2994238BFE6
:1085300013719DF80700FEF7A5FD204603B030BD7E
:1085400037B5054600230DF107000C468DF80730BE
:10855000FEF774FD2A681368591C1160E968641AF3
:10856000298AB4FBF1F41C709DF80700FEF78AFD20
:1085700003B030BD826810B504462AB14369016872
:10858000006998470023A36010BD0EB403B503999A
:1085900021B104AB01AA019300F06CF802B05DF8C0
:1085A00004EB03B07047826830B40468551C8560E2
:1085B000A154D0E901329A4202D330BCFFF7DABFAE
:1085C00030BC70472DE9F84F9946DDE90A4317465C
:1085D000824688460A460126BA420FD24E4538BF27
:1085E0004E4613F0010B01D164B900240125B9F105
:1085F000010F1AD909F1FF397D43F8E7B2FBF7F211
:108600000136E9E79B070ED5B9F1000F0CBF302505
:108610002025A642EAD2013C29465046FFF7C3FF77
:10862000002CF6D1E1E72025F3E7B8FBF5F39F42F4
:10863000E2D9DFF83C90B8FBF5F3504619F8031087
:1086400005FB1388FFF7AFFFB5FBF7F3BD4207D279
:10865000BBF1000F02D00CB1A64203D3BDE8F88FE6
:108660001D46E8E720215046013CFFF79CFFF2E75A
:10867000995103002DE9F74F054617468846002912
:1086800000F0318118F8011B49B92B7B002B00F059
:108690002A81284603B0BDE8F04FFFF76BBF2529BC
:1086A00040F0C080002698F800302D2B424608F19B
:1086B000010823D0302B24D02B2B25D000242A2BAB
:1086C00002F1010123D13B681A1D1B683A601C446A
:1086D0000A4613782E2B26D101324FF0000A10469D
:1086E00010F8011BA1F1300CBCF1090F1DD80A23B1
:1086F00003FB0A13A3F1300A0246F0E746F0010635
:10870000D1E746F00206CEE746F00406CBE711F8C3
:10871000013CA3F130000928DBD80A2202FB043413
:10872000303C0A46CBE74FF0000A12F8011B01F07B
:10873000FB0068289046F8D069290ED04AD85829FD
:1087400064D006D825296DD098F80030002B99D137
:108750009BE7632962D06429F6D13A68D2F8009089
:10876000111D89EAE9723960A2EBE9724FF0010B41
:10877000092A5BDCD34538BFD3462CB1B9F1000FD1
:1087800001DB710700D5013CB20702D5BAF1000F39
:1087900004D0F30702D4002C4ED10024B9F1000F0D
:1087A00052DAC9F100092D212846FFF7FCFE06F038
:1087B0000302022A05D1BAF1000F02D1002C47D1E1
:1087C0000024CDE9004653460A2249462846FFF7D1
:1087D000F9FEB9E773294CD014D87029B4D13B689D
:1087E0001A1D3A60302128461C68FFF7DCFE78210C
:1087F0002846FFF7D8FE00220823CDE900322146A3
:108800001022E3E775292BD078299DD139680A1DFC
:108810003A60CDE900465346102228E03B681A1D15
:1088200019783A602846FFF7BEFE8DE70A230BF160
:10883000010BB2FBF3F29BE7A345AFD22021284600
:10884000013CFFF7B0FEA6E77007B0D52B21ABE7E0
:10885000A345B6D230212846013CFFF7A4FEADE780
:108860003968CDE900460A1D3A6053460A22096874
:10887000ACE73B681A1D3A60F107D3F8009020D4AA
:10888000B9F1000F25D0484609F0E5F90646B44293
:1088900000D9C4B909F1FF3920E028460136FFF7B5
:1088A00082FE19F806100029F7D1A642BFF44CAF9A
:1088B000002C3FF449AF20212846013CFFF773FE0E
:1088C000F3E70026EDE720212846013CFFF76BFE89
:1088D000DDE74E46DBE72846FFF765FE19F8011F86
:1088E0000029F8D130E703B0BDE8F08F07B50B469B
:1088F00088B9124B1248134AC01A0E23C0080093BD
:10890000114B0004114940F0010001F0F0FC0E2071
:1089100003B05DF804FB4BB9084B09480C4AC01A78
:10892000C0080E2300930004074BEBE703601B68AD
:10893000114603B05DF804EB184700BFB04F0300C9
:108940002050030056520300A95103005B5203005C
:10895000D25203002DE9F34188B93D4B3D483E4AD0
:10896000C01AC0080E243D4B009400043C4940F05E
:10897000010001F0BCFC204602B0BDE8F0814AB91C
:10898000334B3448374AC01AC0080E240004009400
:10899000324BEBE7D0F800C0BCF1000F09D12C4BF3
:1089A0002C48314AC01AC0080824000400942B4BFC
:1089B000DCE74BB9264B27482C4AC01AC0080924CB
:1089C00000040094254BD1E74768D7F80480B3FB37
:1089D000F8F708FB17374FB11D4B1E48244AC01A41
:1089E000C0080924000400941C4BBFE78F0709D07E
:1089F000174B18481F4AC01AC008102400040094DE
:108A0000164BB3E712F0030F09D0114B11481A4A65
:108A1000C01AC008102400040094104BA6E7C768D1
:108A2000B9420BD34C1E05691C44AC4206D8DCF895
:108A30000C40A44602B0BDE8F0416047044B054835
:108A40000E4AC01AC008102400040094034B8DE79E
:108A5000B04F03002050030056520300BB510300E7
:108A60005B520300D8520300CC5203008B52030028
:108A7000DE52030008530300205303004353030056
:108A8000F7B580B92A4B2B482B4AC01AC0080E24D0
:108A90002A4B009400042A4940F0010001F027FC11
:108AA000204603B0F0BDD0F800C0BCF1000F09D1E2
:108AB0001F4B2048234AC01AC00808240004009411
:108AC0001E4BE8E74AB91A4B1A481F4AC01AC00899
:108AD000092400040094194BDDE74768D7F800E04B
:108AE0000EF1FF370F4209D0114B1248174AC01A36
:108AF000C008102400040094104BCCE7C768B942AA
:108B00000CD34C1E05690EFB0244AC4206D8DCF8BF
:108B10001040A44603B0BDE8F0406047044B054850
:108B20000B4AC01AC008102400040094034BB2E79B
:108B3000B04F03002050030056520300CE510300F3
:108B40005B520300CC5203008B520300E15103003F
:108B50000752030029DF704728DF704770B50368AC
:108B60009D6886B004460E466DB114220021684609
:108B700009F01CF8A3680593237901962BB1012B0A
:108B80000DD06846A84706B070BD01238DF80030AF
:108B900023690293E368039363690493F1E7022373
:108BA0008DF80030E3681B030293F5E70846704731
:108BB00000207047024B187A003018BF0120704720
:108BC000682F0020034B187A0122B0FA80F05A7403
:108BD00040097047682F002008B510461A4608F073
:108BE000BCFF002008BD000008B514220021044885
:108BF00008F0DCFF0348FFF71AFB002008BD00BFA8
:108C0000682F0020582F002010B5094C094B4360F5
:108C10002046FFF751FC40B908F080F81C2320746F
:108C20008C2205490548FFF7EFFA002010BD00BF70
:108C3000682F002078530300CC2E0020582F0020EE
:108C400070B5244D244E2B7A2C463BB92349244839
:108C5000FFF749FB306008B9686070BD02232372DA
:108C600033681A7972B1012A24D018460321FFF71C
:108C700075FF00232372636018491948BDE87040EE
:108C8000FFF75CBBD3E90520121AB2F5805F28BF5D
:108C90004FF48052D3E903159208012A014438BFEA
:108CA00001222844FFF756FF50B11128DDD10123DE
:108CB0002372D2E7D3E903021044FFF74DFFF3E735
:108CC000237C002BC9D10146BDE87040022000F092
:108CD00009B800BF682F0020802F00207C2F0020C3
:108CE000582F002038B5831E012B45D8234C237AFA
:108CF000002B41D0022B09D1032830D0204B1B6818
:108D00000022E2601A793AB1012A22D0637C7BBB4F
:108D1000BDE83840FFF794BFD3E905128D1AB5F5C9
:108D2000805F94BF521902F580529A619142EDD151
:108D300002284FF0000308BF19462372104B18BFDA
:108D40000D211868FFF70AFF0E490F48FFF7F6FAE2
:108D5000DCE71A6901321A615B699A42E7E7E36866
:108D60000133082B01D8E360D0E70023E360DFE79D
:108D7000BDE8384007F0C2BF38BD00BF682F0020F3
:108D8000802F00207C2F0020582F002000F0FD03B2
:108D9000012B08D1044B00225A74421E504250410C
:108DA0001874FFF74DBF7047682F002010B5064CB0
:108DB000201DFFF781FB28B9637C1BB9BDE810407B
:108DC000FFF73EBF10BD00BF682F00202DE9F34123
:108DD00080460D460F4801A916461F46FFF749FA7F
:108DE0000446A8B11C22002108F0E0FE2D0B01234F
:108DF000237101A9C4F80080A760E5606661054899
:108E0000FFF761FAFFF7D2FF002002B0BDE8F08162
:108E10000420FAE7582F00202DE9F74381468846C1
:108E2000104801A917461E46FFF723FA0446B0B1C1
:108E30001C22002108F0BAFE00250A9BA36001A9AC
:108E40002571C4F80090C4E9037866610548FFF70E
:108E50003AFAFFF7ABFF284603B0BDE8F0830420E1
:108E6000FAE700BF582F00202DE9F047B0F8069030
:108E70004479D2F800A09DF8208009FB04F4043C5A
:108E800006460AEB0300A0420F4688BFA4EB030A84
:108E9000191DC2F800A0B1FBF9F509FB15114DB978
:108EA000A9EB0104544528BF5446BAF1000F04D180
:108EB000BDE8F0873668013DF1E704317B19701891
:108EC0002246B8F1000F0ED001461846AAEB040A5C
:108ED00008F043FED145254436684C464FF000016A
:108EE00028BF5446E1E71946F0E7FFF7EEBAF8B5B8
:108EF00046790146721E0546002393422D6803D32E
:108F00000024A64202D8F8BD0133F6E70F682846D0
:108F1000FFF716FB01343946F3E72DE9F843068ADB
:108F2000CD1C0746FFF7E8FA043E35440446B5FB7E
:108F3000F6F5F0B14FF48073EDB28380C680013D49
:108F4000076081464FF00008A84512D23846FFF767
:108F5000D3FA064648B163790133637108F1010819
:108F6000C9F8000007608146EEE72046FFF7BFFF23
:108F700034462046BDE8F88301210430FFF786BA65
:108F800010B5012104460430FFF78BFA10F0FF0FF3
:108F900004D12046BDE81040FFF7A9BF10BD1FB5A2
:108FA00003920022009203AAFFF75EFF05B05DF86E
:108FB00004FB1FB503920122009203AAFFF754FF9E
:108FC00005B05DF804FB41DF70470000064B10B5AB
:108FD00000241C70054B1C60BFF35F8F04490548DB
:108FE00000F00DF9204610BD8C2F0020902F00209E
:108FF000A4530300842F002007B500230DF10700C0
:109000008DF80730FEF71AF8F1EE103A23F09F03BF
:10901000E1EE103ABFF35F8F094B4022C3F8842181
:109020009DF80700FEF72EF807F078FE20B1FFF755
:10903000CAFF03B05DF804FB20BF40BF20BFF8E7C4
:1090400000E100E0026813685268934291BFD01AB1
:1090500080680130801888BFC01A704703682DE906
:10906000F0411F681D685B689D4284BF83680133BF
:10907000164688465D1BC2684168AE42044607FB3F
:1090800002110CD87243404608F067FDA3683E44C5
:109090009E4288BF002623681E60BDE8F08105FB64
:1090A00002F73A46404608F058FDE2686168751BD1
:1090B0006A4308EB070008F050FD23681D60ECE7E9
:1090C000036881681A685B688B4234BF01330023F0
:1090D000D31A584258417047F7B5002304460DF1A2
:1090E00007000D468DF80730FDF7A8FF2046FFF773
:1090F000E7FF10B1237C002B3CD12268A66853689F
:109100005168B14234BF01310021516030B1116862
:10911000A068814234BF013100211160E2686068BB
:10912000511E072920D8DFE801F004101F141F1F6B
:109130001F182A78C2542046FFF784FF23689A68D4
:10914000824200D29860002415E02A8820F813207B
:10915000F1E72A6840F82320EDE7D5E9006700EB46
:10916000C300C0E90067E6E7294602FB030008F0F8
:10917000F4FCE0E704249DF80700FDF783FF204698
:1091800003B0F0BDF7B506460F4614460025A2B160
:109190000DF107008DF80750FDF750FF3046FFF73F
:1091A00051FFA0420CD3224639463046FFF756FF06
:1091B0002C469DF80700FDF765FF204603B0F0BD83
:1091C0000524F6E737B5054600240DF107008DF8B4
:1091D0000740FDF733FF0C222146286808F0E6FC23
:1091E0009DF80700FDF74EFF03B030BD83680022F5
:1091F0005A609A60C3E90422DA601A6070470B680B
:109200004A684360934208BF0023016008BF43607F
:109210007047436843B10268916852680B449342B7
:10922000436004BF00234360704770B5446806463E
:109230000D46206818B1B3682946984718B92368C5
:109240002B60256070BD2468F3E74368186808B197
:1092500002681A6070474368186870474368186866
:1092600000B97047884203D102681A600120704734
:1092700003460068F4E7000010B50D49A1F59472AB
:10928000914201D800200FE08B1ADB1003EBD3735F
:109290005B1002EBC30452F83330834205D802D28C
:1092A00004F10802ECE7606810BD2146E8E700BF62
:1092B0000055030008B5FFF7DFFF024B002808BF89
:1092C000184608BDC25303000B7B23B14B680360F3
:1092D0000023037170470B6803600123F9E7000066
:1092E00038B5074C051E04F1080318BF1C46236857
:1092F0002BB11A6822605B6828469847F7E738BDAB
:109300009C2F002020B9054B01225A70FFF7E8BFBF
:10931000012802D1014A9070F8E77047942F00208D
:1093200020B9034B01225A70FFF7DABF704700BF24
:10933000942F002038B50B4C237883B90A4863601A
:10934000A3602361E36000F037F9054607F0E6FC0F
:1093500008B900F03DF901232370284638BD852562
:10936000FBE700BF942F00200593020037B50B4C9C
:1093700000230DF107008DF80730FDF75FFEE3686D
:10938000013BE360E56815B900F034F9A5709DF87C
:109390000700FDF777FE03B030BD00BF942F00201B
:1093A000012813B509D018B103281CD002B010BD94
:1093B0000F4B0122C3F88020F8E70E4C00230DF17B
:1093C00007008DF80730FDF739FE23780BB9FFF75A
:1093D000B1FFE3689DF807000133E3600123A37048
:1093E000FDF750FEE2E700F0F3F8FFF7BFFFDDE71F
:1093F00000E100E0942F002031DF70471FB500230B
:109400008DF807000DF10F008DF80F30FDF716FEF7
:1094100007F084FC50B90DF107010848FFF75CFE26
:109420000648FFF74DFE08B100F05AFB9DF80F000B
:10943000FDF728FE05B05DF804FB00BF504F0300A8
:1094400007B520B103280BD003B05DF804FB0F4B28
:109450001B78012BF8D100F043FB00F049FBF3E748
:1094600000230DF107008DF80730FDF7E7FD0748F1
:109470000378012B05D10649013000F0F1FA00F024
:109480001DFB9DF80700FDF7FDFDDDE7F82F00202F
:10949000FD93020013B5124C2378FBB9114A8DF8E5
:1094A0000730002808BF10460288A4F801200DF1FB
:1094B0000700FDF7C3FD07F031FC30B90A49601C15
:1094C00000F0CEFA40B900F0F9FA01239DF8070048
:1094D0002370FDF7D7FD002002B010BD8520FBE70B
:1094E000F82F0020C0580300FD93020007B50023A9
:1094F0000DF107008DF80730FDF7A0FD07F00EFC19
:1095000018B900F0EDFA00F0F3FA9DF80700FDF746
:10951000B9FD0448FFF756FE034B00221A7003B052
:109520005DF804FB504F0300F82F00202DE9F743AE
:109530000024DFF8589005460E46A0460DF10700BE
:109540008DF80780FDF77AFD07F0E8FB074638B98C
:10955000324629464846FFF715FE044600F0AEFAAB
:109560009DF80700FDF78EFD47B131462846FFF70D
:1095700043FF42F207039842044605D0022CDDD097
:10958000204603B0BDE8F0830524F9E7504F0300FF
:10959000F8B505460C4604B9F8BD402C264628BF50
:1095A0004026F7B239462846FFF7C0FF0028F9D118
:1095B000A41B3544EFE70000044A137923B90121C5
:1095C000106091801846704785207047FC2F00205E
:1095D000074B1A68D2075FBFC02283F8002301221D
:1095E0001A604FF080430122C3F81825704700BF6E
:1095F00000E100E0044B01221A604FF08042D2F8F3
:109600001834DB03FBD470470C000040154B07B542
:109610001A687AB100221A601B680093009B4FF011
:1096200080430122C3F808230F4B587910B95A71AF
:109630001B6898470D4B1A6882B100221A601B689C
:109640000193019B4FF080430222C3F80823064B8D
:109650001B68012003B05DF804EB184703B05DF808
:1096600004FB00BF00010040FC2F0020040100406B
:1096700000F1804000F5C040002382B00360036821
:109680000193019B02B07047800000F1A040D0F828
:10969000003723F44033C0F80037D0F8003743EAEE
:1096A0000141C0F800177047054B4FF0FF32072803
:1096B00043F8202084BF1B1883F84820704700BF60
:1096C0000430002010B5174C94F8583043BB04F117
:1096D00030032021FF22013911F0FF0103F8012B93
:1096E000F9D1C8B2FFF7E0FF01310C29F9D104220A
:1096F00000210D4808F05AFA0C4BC02283F80623CB
:1097000040221A604FF4BE70FFF7B2FF084B4FF0D3
:109710000042C3F80423012384F85830002010BD10
:109720000820FCE7043000205830002000E100E071
:1097300000600040034B93F85800003018BF012030
:10974000704700BF04300020F0B5374B1C1894F967
:109750003040002C1C4664DA8D78C5F34005002D9E
:109760000BBF082300230C260826B34201D1042096
:10977000F0BD54F8237001373FD1261844F8232058
:1097800086F8303015B9E21882F848008A78550713
:1097900013D4D60733D5820002F1A042D2F8005785
:1097A00025F00205C2F80057204EC50800F0070753
:1097B0000122BA40775D3A4372558A780D7812F0EB
:1097C000020225D09B0003F1804303F5C04302024F
:1097D000D3F8101521F4473121F44071C3F8101566
:1097E0002D04D3F8101502F4F85205F440352A433D
:1097F0000A43C3F810250020BAE70133B5E74D78D6
:1098000000F5E0724FF0A046AD0046F82250CBE7DD
:10981000083B234493F8501041EA851583F85050D3
:10982000E9E70820A4E700BF0430002058300020FA
:1098300038B5204C251895F93020072A18DD224428
:1098400092F848309B09032B0DD14FF0A043D3F879
:109850001035C34013F0010F0CBF02210321BDE8F6
:109860003840FFF711BF012B14BF03210221F6E797
:10987000D3B2072B1CD8930003F1804303F5C043F8
:10988000D3F8100540F00100C3F8100502F14000C4
:10989000800080B2FFF7ECFE51B195F9303054F8FA
:1098A00023302BB1012303FA02F2034BC3F8042344
:1098B00038BD00BF04300020006000404FF0A043DE
:1098C000D3F8103523FA00F000F0010070470000D3
:1098D0002DE9F04F85B000245A4D01944FF4807269
:1098E000012102F1804303F5C04390B21B68012BB4
:1098F00006D1D5F804330B4202D0FFF7B9FE0C4372
:109900000432B2F5907F4FEA4101EAD14E4B1B6819
:10991000012B0AD14FF4BE70FFF7AAFE4FF0A0430F
:1099200044F00044D3F81035019314F0FF0F1AD01F
:10993000464F00250126344210D0AB0003F180438E
:1099400003F5C043D3F81005D3F8101557F82530A8
:1099500023B1C1F30141C0F3042098470135082D1C
:109960004FEA4606E7D1002C64DA00224FF0FF33BD
:10997000CDE90223354D01274FF0000A344E5446FD
:109980004FF0A04816F9012B531C46D0D2B222F05A
:10999000C0094FEAD90104A8084402F0070310F8EF
:1099A00004CC07FA03F31CEA030F36D005EB090CCD
:1099B00092099CF930C055F82CB0BBF1000F0AD1C8
:1099C000032A2AD10DF1080E1EF801C04CEA030C3F
:1099D0000EF801C001E0032AF4D009F5E07110F897
:1099E0000C0C58F821101842C1F3014105D002298E
:1099F00013D1032A0BD1114604E003290DD1032A08
:109A000005D102214846FFF73FFE0134E4B2BBF125
:109A1000000F02D011464846D8470AF1010ABAF1B0
:109A2000040FAFD134B14FF0A043019AD3F81035F1
:109A3000934202D105B0BDE8F08F0193029B0393DE
:109A40009AE700BF006000407C61004004300020C5
:109A500054300020014B1B68184700BF60300020C5
:109A600010B5124C2278FAB9114B1960037813F033
:109A7000010F104B1EBFD3F8042542F00102C3F8BA
:109A80000425D3F8002222F00102C3F80022437813
:109A9000094A5B01DBB282F80D334FF400531360C7
:109AA00001232370002010BD8520FCE76C300020CE
:109AB0006830002000D0004000E100E0064B0022AA
:109AC0001A6082B01B680193019B044B0122C3F80A
:109AD00004231A6002B0704700D1004000D000405B
:109AE000024A0123C2F808335360704700D0004097
:109AF000064A0123C2F808335360054B4FF4005265
:109B0000C3F88020034B00221A70704700D0004039
:109B100000E100E06C300020074B00221A6082B0A8
:109B20001B680193019B054BD3F80805044B1B6888
:109B3000C0B202B0184700BF00D1004000D00040C2
:109B400068300020054A4FF0A043105CD3F804357C
:109B500023FA00F0C04300F001007047EA58030008
:109B6000044B1A5C012393404FF0A042C2F80C351D
:109B7000704700BFEA580300044B1A5C012393406E
:109B80004FF0A042C2F80835704700BFEA58030002
:109B900008B50020FFF7F0FF0120FFF7EDFF0220DE
:109BA000FFF7EAFF0320BDE80840FFF7E5BF08B56F
:109BB0000020FFF7D5FF0120FFF7D2FF0220FFF7BB
:109BC000CFFF0320BDE80840FFF7CABF074A4FF0A8
:109BD000A041105CD1F804350122824022EA030042
:109BE0001340C1F80805C1F80C357047EA58030066
:109BF000054A4FF0A043105CD3F8103523FA00F06B
:109C0000C04300F001007047E65803000D2809D05A
:109C10000E2809D00F2809D010280CBF03204FF0C0
:109C2000FF307047002070470120704702207047C6
:109C3000C20708B501460CD54FF0A0430322C3F874
:109C40004427C3F84827C3F84C27C3F85027FFF729
:109C50009FFF8B070AD54FF0A0430C22C3F834278F
:109C6000C3F83827C3F83C27C3F8402708BD70471E
:109C700007B5044B0093044A402300F032F803B0C8
:109C80005DF804FB8D9C02006E3000202DE9F84346
:109C900089461446B2B10F4B0F4E0325002743F0FF
:109CA0000108224609EB0701002001F09DFD074451
:109CB000241A48B933782BB14FF47A40C047013D9C
:109CC00002D13570BDE8F88301233370002CE8D150
:109CD000F8E700BFF05803006D300020704701F036
:109CE000B7BDF0B595B01C46164608460D46FFF7C1
:109CF00043F91A9B0D93CDE90864002423460822FA
:109D000005A928460A948DF82C400C94FFF751F9C8
:109D1000079B0293069B03939DF814308DF8114026
:109D200003F00302012A1DD1BDF81440059EC3F3C0
:109D3000C203C4F383148DF81030A20008230EA9C7
:109D40002846FFF736F9C6F3952608AB009322465E
:109D500002AB0EA9304600F087FB2846FFF710F94A
:109D600015B0F0BD022AF8D1BDF81640C3F3C20306
:109D7000A4098DF810300827082C264628BF08268D
:109D80003B4632460EA92846FFF713F9A41B08AB41
:109D900002AA31460EA8374400F0CAFB002CEBD1D2
:109DA000DBE7000008B5FFF79AFF0421034800F045
:109DB000C9FA034B01225A7108BD00BFA850030025
:109DC000EC2B0020037813F0040216D003F00303F9
:109DD000012B03D0022B09D0012070470A680088AC
:109DE0000232C0F3831002440A60F5E70B68428830
:109DF000023303EB92130B60EEE71046704700004E
:109E00002DE9F04F87B000230446851C0DF10700B3
:109E10000F4690468DF80730FDF710F94548066863
:109E20003E60D0E90132134401339B1B824600F2AD
:109E30001C4600F5836900F21447AB421BD3002295
:109E4000B8F1000F70D0052363F3070264F38912A1
:109E5000DAF80010DAF808309DF807000B400333F9
:109E60000D444AF82320CAF80050FDF70BF90120F1
:109E700007B0BDE8F08F01213046FEF707FB4846EA
:109E8000FEF71DFB3846FEF71AFBDAF80400DAF895
:109E900008B0029000EA0B0003300AEB800002A930
:109EA000FFF790FF029B50BB0BEA03020AEB820212
:109EB00003F1020CD2680392013303EA0B0B0AEBA5
:109EC0008B0B02F00302012ACDF808C0DBF80C105E
:109ED00022D0022A16D083463846FEF7F3FA10B194
:109EE000029BCAF8043059463046FEF7CFFADAE949
:109EF00001231344DAF8002001339B1A9DE70BEA93
:109F00000300C9E7BDF80E309B0903334FEA114B3C
:109F10000CEB93030293DFE7BDF80C30C3F383131C
:109F20004FEA114B6344F5E7062363F3070264F33A
:109F30009F528DE7803100200B4B0C48FF2210B55B
:109F40009A600022C3F81824C3E90022C3F814243D
:109F5000012283F82024FEF7C8FF044610B9044804
:109F6000FFF744F9204610BD80310020944F0300D4
:109F70001459030030B50A4C71B10A4A0A49121B40
:109F8000D20800239A4201D1002030BD31F823507D
:109F9000854202D00133F5E7034654F83300F4E775
:109FA000B04F0300A8500300E42B0020094B0139F7
:109FB00003EBC000032909D8DFE801F00A02040618
:109FC000042070470079704740797047002070473F
:109FD00002207047B04F0300034BD3E90030C31A8F
:109FE00058425841704700BF803100202DE9F043AE
:109FF00087B0FFF7F1FF0646002840F0FB807E4D5A
:10A00000C5F81804BFF34F8F6868AC680290204011
:10A01000033005EB800002A9FFF7D4FE029B18B1C4
:10A02000D5F81824002A5FD004EA0302991C0133F2
:10A0300005EB8202234005EB8303D268DB680493BF
:10A0400002F00303022B0392029162D1BDF80E309D
:10A050006A484FEA9318B8F1500FC14628BF4FF035
:10A06000500969F38F1309F10801ADF80E30FEF7BE
:10A0700054FF0746002800F0A880FEF77DFF03A9E3
:10A08000002308223846FEF78AFF029924EA0106D7
:10A090000136B600B14535D95FFA89F97EB3F6B21B
:10A0A000A9EB0609214003315FFA89F4B146544E09
:10A0B00005EB810108234A463846FEF770FF36B1AA
:10A0C00009F10803224631463846FEF768FF029B35
:10A0D00008F1030803EB98030293D5F81834002B1A
:10A0E0004BD1D5F810445BE02A689A4204D86A60E4
:10A0F000304607B0BDE8F08304EA030088E7404932
:10A100003446D7E72140033108234A4605EB810155
:10A11000DAE7012B59D1BDF80C303848C3F383116D
:10A12000062928BF062161F3891302318900ADF8A1
:10A130000C30FEF7F2FE0746002846D0FEF71CFF63
:10A140000023082203A93846FEF729FF0026BDF8A0
:10A150000C20C2F38312B300964203F10803BCD271
:10A1600002994A1C21400331029205EB810104222D
:10A170003846FEF714FF0136E9E73846FEF700FFE0
:10A18000FFF72AFF80F00100C6B2B1E7E3685B7910
:10A1900023B1236839461B6820469847E3681C684A
:10A1A000002CF3D13846FEF7EBFE0DF107008DF8D9
:10A1B0000740FCF743FFD5F818340BB9029B6B60DE
:10A1C0009DF80700FCF75EFFDAE7D5F8104454B9B4
:10A1D0000C4B0D480D49C01AC008000440F00200A5
:10A1E00000F06EF8CCE7236820469B689847E36848
:10A1F0001C68ECE700267BE780310020944F0300C9
:10A200008C310020B04F0300E04F030020590300C1
:10A210002DE9F74F284C80460F46924601A90122AE
:10A2200018469B46D4F80890FFF7EAFD80B3019DDD
:10A230000026A91C5E4506EB010233D100211F4810
:10A24000FEF7E3F880F310006A1C02EA090204EB4F
:10A250008202000405EA0903033340EA1840D06093
:10A2600014F8232068F3C50204F8232034F82320CF
:10A2700066F3891224F8232054F8232067F39F22E1
:10A2800044F8232002F0F80242F0010204F82320EF
:10A2900094F820341BB1FFF7A9FE0028FBD103B0CE
:10A2A000BDE8F08F09EA020204EB82025AF8263078
:10A2B000D3600136BEE700BF803100209C3500200E
:10A2C00000231A46FFF7A4BF07B50123019201AA94
:10A2D000FFF79EFF03B05DF804FB07B5CDE900234F
:10A2E00002236A46FFF794FF03B05DF804FB1FB535
:10A2F000CDE90123069B039301AA0323FFF788FFFF
:10A3000005B05DF804FB1FB5CDE90023069B029361
:10A31000079B03936A460423FFF77AFF05B05DF8B5
:10A3200004FB7FB5CDE90123089B0393099B0493AC
:10A330000A9B059301AA0523FFF76AFF07B05DF8A2
:10A3400004FB000030B50F49D1F810240023144657
:10A350003CB9C468237152B9C1F810042260184690
:10A3600030BDE46825799D4206D02468F0E7D268C4
:10A37000116821601060F2E701330A2BE7D14FF03A
:10A38000FF33ECE780310020094A38B50123D2F8C9
:10A39000104482F820341D4604B938BDE3685D716D
:10A3A000236820465B689847E3681C68F4E700BFB1
:10A3B00080310020037A052B10B50C460FD0437A6C
:10A3C00023B1084A08492046FEF7DFF8074920462E
:10A3D000FEF7DBF82046BDE81040FEF7CBB8002AB8
:10A3E000F8D0F3E76B590300CB8D03008D590300C0
:10A3F000C38873B504460D4633B1144A009214491C
:10A40000144A2846FEF7C1F8217A05291CD0637A40
:10A410004BB1A088FFF7CAFD0F4B104953F820201D
:10A420002846FEF7B2F8227A0D4BA08853F8226036
:10A430000021FFF79FFD0B4903463246284602B034
:10A44000BDE87040FEF7A1B802B070BD6B590300C3
:10A45000785903007059030038590300CB8D03006D
:10A460009C590300905903002DE9F04385B01F4625
:10A470000C9D002306460C46904695F80C902B73D5
:10A4800029463846FFF7B4FFB8F1060F09D8DFE8D0
:10A4900008F00412181F2833400031462846FEF702
:10A4A00074F8002229463846FFF784FF85F80C909F
:10A4B00005B0BDE8F083226831462846FEF765F80E
:10A4C000EFE7D4E9002331462846FEF75EF8E8E7D7
:10A4D000A36800933146D4E900232846FEF755F8D7
:10A4E000DFE7E3680193A36800933146D4E90023D2
:10A4F0002846FEF74AF8D4E723690293E3680193FC
:10A50000A36800933146D4E900232846FEF73DF8BE
:10A51000C7E76369039323690293E3680193A36820
:10A5200000933146D4E900232846FEF72EF8B8E719
:10A5300008292DE9F84F80460E4617461C463AD8A2
:10A54000002593F80C901D7319461046FFF750FF35
:10A55000DFF884A0DFF884B0AE422ED918F80520C9
:10A5600059462046FEF711F80135082DF4D1184957
:10A57000DFF86CB02046FEF708F84FF0000A5645A9
:10A5800020D918F80A507E2D03D8284607F088FAFB
:10A5900000B92E252A4659462046FDF7F6FF0AF156
:10A5A000010ABAF1080FEAD1012221463846FFF725
:10A5B00001FF84F80C90BDE8F88F51462046FDF766
:10A5C000E4FFD1E703492046FDF7DFFFE7E700BFDF
:10A5D0006659030064590300625903005C59030083
:10A5E000685903004FF48C72002107F0DFBA20B1E4
:10A5F00000F58C730022984200D1704700F8012BBF
:10A60000F9E70000C02AF0B541D0B2F5807F40D014
:10A61000802A40F0C5800A230446036000F1080345
:10A62000520944F8043F01EB82028A4233D10368A5
:10A630000C2B3ED00E2B6CD00A2B26D15A4D5B49E9
:10A6400000F1A006426955F8044B8768C2F307235E
:10A650007C40CB5C6340140E10300C5D83EA0443F5
:10A66000D4B20C5D83EA0463C2F307440C5D83EA51
:10A67000042350F8044C836063400468C360634063
:10A680000361534043618642DCD100208AE00C2301
:10A69000C2E70E23C0E78B784D781B0443EA0523FD
:10A6A0000D782B43CD7843EA056344F8043F043129
:10A6B000BBE73D4C3D4900F1C005C26954F8046B4D
:10A6C0008768C2F307237E40CB5C7340160E1830B8
:10A6D0008E5D83EA0643D6B28E5D83EA0663C2F3DB
:10A6E00007468E5D83EA062350F80C6C8360734046
:10A6F00050F8086CC360734050F8046C03617340F9
:10A7000006684361734083615340C3618542D4D17D
:10A71000BBE7254D254900F1E006446A55F8042BB6
:10A720008768C4F307237A40CB5C87695340220EC5
:10A7300020308A5C83EA0243E2B28A5C83EA0263E5
:10A74000C4F307428A5C83EA022350F8142C836026
:10A75000534050F8102CC360534050F80C2C036148
:10A760005340DAB243618A5C7A401F0ECF5D82EAC1
:10A770000762C3F30727C3F30743CF5DCB5C82EACD
:10A78000072282EA034350F8042C83615340026895
:10A79000C36153400362634043628642BDD174E7A4
:10A7A0006FF01F00F0BD00BFFC6A0300FB590300FF
:10A7B0002DE9F04F47680D683B684C688E68C968A2
:10A7C000DFF89882DFF898E2DFF898C25D407B6896
:10A7D0005C40BB685E40FB684B4001688FB049102D
:10A7E0000139009107F1300151F8107C0197EFB267
:10A7F00051F8200C58F8277087EA00091F0E954879
:10A800005EF8277089EA0709C4F307274FEA146B3B
:10A810005CF827705EF82BB089EA0709C6F3074792
:10A82000203150F8277089EA0709E7B25FFA89F00A
:10A8300058F82770029051F83C0C87EA000A2F0E56
:10A8400084485EF827708AEA070AC6F30727C4F32C
:10A8500007445CF827708AEA070AC3F3074750F8F1
:10A8600027708AEA070AF7B2CAF30720039058F85C
:10A87000277051F8380C474087EA0B07C3F3072BC2
:10A8800074485CF82BB087EA0B07C5F3074BDBB2C3
:10A8900050F82BB058F8233087EA0B07C7F307406E
:10A8A000360E049051F8340C5EF82660C5F3072587
:10A8B0004340684873405CF8256050F8244051F8E4
:10A8C0002C0C059073406340C3F30740069051F889
:10A8D000280C0790F8B20890C3F3072009901D0ECA
:10A8E000C9F30740DBB20A900D93009B4FEA1A6050
:10A8F0000B90002B51F8240C0C905FFA8AF4C7F3EC
:10A90000072B4FEA1966CAF3074AC9F307294FEA2A
:10A9100017675CDC5049039B019811F803C0029B48
:10A920000C5DCB5C43400498085C83EA0C2383EA0B
:10A930000043485D059D83EA006311F80B00137026
:10A940006C4084EA00240698089D085C4D5D84EA0A
:10A950000044885D079E84EA00640998085C75409D
:10A9600085EA00250A980C9E085C85EA00450B984C
:10A97000085C85EA00650D98085C704011F8096074
:10A9800080EA062011F80A60C95D80EA064080EA84
:10A990000161180A5070180C1B0E9070D370230AB6
:10A9A0005371230C93712B0A53722B0C93720B0A65
:10A9B00014711572240E2D0E117353730B0C090EA6
:10A9C000D471D5729373D1730FB0BDE8F08F029B31
:10A9D0005EF8255058F823301E4858F824405EF899
:10A9E00027706B40019D6B40039D5CF825505D40D6
:10A9F000049B50F823305D405EF826305C40059B98
:10AA00005C405CF82B305C40069B50F823305C4087
:10AA1000089B58F823600B9B5EF823305E40079B31
:10AA20005E40099B5CF823305E400A9B50F823305F
:10AA30005E400D9B58F823307B400C9F7B405CF8B8
:10AA400029707B4050F82A707B40009F013F00979F
:10AA5000CAE600BFFC620300FB590300FC5A030076
:10AA6000FC660300FC5E03002DE9F04F47680C68AC
:10AA70003B684E688D68C968DFF89C82DFF89CE20D
:10AA8000DFF89CC25C407B685E40BB685D40FB6851
:10AA90004B4001688FB049100139009107F1300136
:10AAA000E7B251F8100C58F82770019051F8200CBB
:10AAB00087EA0009370E96485EF8277089EA070989
:10AAC000C3F307274FEA136B5CF827705EF82BB0CF
:10AAD00089EA0709C5F30747203150F8277089EA4A
:10AAE0000709DFB25FFA89F058F82770029051F831
:10AAF000340C87EA000A270E85485EF827708AEA38
:10AB0000070AC5F30727C3F307435CF827708AEAEF
:10AB1000070AC6F3074750F827708AEA070AEFB218
:10AB2000CAF30720039058F8277051F8380C4740B3
:10AB300087EA0B07C6F3072B75485CF82BB087EA4A
:10AB40000B07C4F3074BF6B250F82BB058F8266049
:10AB500087EA0B07C7F307402D0E049051F83C0C11
:10AB60005EF82550C4F30724464069486E405CF8FF
:10AB7000245050F8233051F8280C07906E405E4066
:10AB8000F8B251F82C3C0890C6F3072005930990C1
:10AB9000CAF30743C9F3074006930A904FEA1A60C5
:10ABA0000B9051F8240C0C90C6F307400D900098C0
:10ABB0000028C9F3072B4FEA17634FEA1664F5B272
:10ABC0005FFA8AFAC7F307274FEA19695CDC514933
:10ABD0000398019E11F800C00298085C7040049E22
:10ABE0008E5D80EA0C2080EA06400E5D11F80B4075
:10ABF00080EA06604E5D059D10706E4086EA042670
:10AC0000069C0C5D86EA0446CC5C099B86EA0464DB
:10AC1000CE5C089BCD5C079B5D400A9BCB5C85EAC4
:10AC2000062585EA03450B9B0C9ECB5C85EA0365F4
:10AC300011F80A307340CE5D83EA06230D9E8E5DC7
:10AC400011F8091083EA064383EA0163010A51708F
:10AC5000010C9170000E210AD0705171210C91717C
:10AC6000290A5172290C9172190A14711572240E55
:10AC70002D0E13735173190C1B0ED471D572917371
:10AC8000D3730FB0BDE8F08F029E5EF8244058F8F1
:10AC900026601F485EF823305EF829905CF8277024
:10ACA0007440019E7440039E5CF826607440049ECC
:10ACB00050F82660744058F825605E40059B5E4061
:10ACC0005CF82B305E40069B50F823305E40089BBA
:10ACD00058F823500B9B5EF823305D40079B5D4086
:10ACE000099B5CF823305D400A9B50F823300C9898
:10ACF0005D4058F82A3083EA090343407B400D98B1
:10AD0000034F57F82070009801387B400090C7E649
:10AD100024740300246B0300246C030024780300D4
:10AD20002470030010B50129144621461A4603D1A8
:10AD3000FFF73EFD002010BDFFF796FEFAE72DE974
:10AD4000F041B2F5C07FADF5467D06468846154612
:10AD500078D84FF4D07200215EA806F027FF18A81B
:10AD6000FFF740FC64AF6BBA2A460024ADF88A3185
:10AD70004146302338468DF88F31ADF8884106F0D2
:10AD8000ECFE802304AA7B5511461935234602F8B0
:10AD9000013B0133202BFAD14FF4807218A8FFF742
:10ADA00031FC002410220021684606F0FFFE0DF25F
:10ADB0008717A8466A46A7F11003117813F8010F08
:10ADC00041409F4202F8011BF7D1B8F1100F94BF28
:10ADD000A8EB0808A8F110086B466A46012118A8DC
:10ADE000FFF7A0FF1037B8F1000FE3D10CAB181933
:10ADF0001022694606F0B1FE9DF87B311034013314
:10AE0000302C8DF87B31CDD14FF480720CA918A86D
:10AE1000FFF7F8FB06F1300414AB1A46012118A81D
:10AE2000FFF780FF3046102214A9103606F095FE79
:10AE3000B442F1D118A8FFF7DAFB00200DF5467DEA
:10AE4000BDE8F0816FF03700F8E72DE9F0438DB0F1
:10AE500004460D4630220021684606F0A7FE002673
:10AE600004F10F0904F120086F460DEB0603494673
:10AE700000E001460A7808460132D2B200F8012902
:10AE80000AB9A142F5D12246012140461036FFF70A
:10AE900049FF302EE8D16B1E2F353A7813F8011F89
:10AEA0004A409D4207F8012BF7D169464FF4807262
:10AEB0004046FFF7A7FB102208A9204606F04DFEEA
:10AEC00000200DB0BDE8F0834FF4A072002106F021
:10AED0006DBE10B5044638B12030FFF788FB04F58D
:10AEE000A07300229C4200D110BD04F8012BF9E7A9
:10AEF0002DE9F0418369B3F5C07FE0B00446884690
:10AF000017462DD8C3F5C073934229D34FF4C072AE
:10AF10000021684606F04AFED4F83831A269D4F818
:10AF20003C01694698470546E8B9A669B8F1000FA3
:10AF300007D037B10DEB06003A46414606F00DFE4C
:10AF40003E44324669466846FFF7F9FE69462046A8
:10AF5000FFF77BFF01232361284660B0BDE8F08145
:10AF60006FF03705F8E76FF03305F5E72DE9F041AD
:10AF7000044688B0884617460021202204F12005A7
:10AF800068461E4606F012FE2846FFF72BFB0F9B75
:10AF9000A36142F21073E3616946C4E94E874FF43E
:10AFA00080722846FFF72EFB0E9A31462046FFF7A7
:10AFB0009FFF08B0BDE8F08113B530240194049CD4
:10AFC0000094FFF7D3FF02B010BD2DE9F04391B01C
:10AFD000B2F5806F04460E4615469846189F4ED827
:10AFE000B7F5807F4ED83022002104A806F0DEFDA0
:10AFF0002269E3699A4201DC636943B13A464146FA
:10B000002046FFF775FF60B111B0BDE8F08347B18E
:10B0100041463A4604A8FFF792FE04A92046FFF7EE
:10B0200014FF04F10F0704F1200845B904A92046D4
:10B03000FFF70BFF2369013323612846E4E73A4613
:10B04000137811460133DBB201F801390BB9A24282
:10B0500013D16B46224601214046FFF763FE102DB7
:10B06000A94628BF4FF0100930464A46694606F007
:10B0700074FD4E44A5EB0905D7E70A46E0E76FF0FB
:10B080003500C1E76FF03700BEE707B50023009336
:10B09000FFF79BFF03B05DF804FB28B139B1002333
:10B0A000C1E900301846704748F21050704748F226
:10B0B0001350704730B1036848F240508B4208BFCC
:10B0C0000020704748F21050704730B119B10B683A
:10B0D000934205D30A600020704748F2135070472E
:10B0E00048F21450704700002DE9F041884600AF47
:10B0F00006461146404615461C46FFF7CEFF08BBE4
:10B1000021464046FFF7C9FFE0B998F80430104ADD
:10B1100052F82380B8F1000F17D056B90D4A32F813
:10B12000133033B107336A46DB08A2EBC3039D46F5
:10B130006E46224629463046C04718B9064B2B605A
:10B14000063B2360BD46BDE8F08148F20350F9E7B5
:10B150002C7C0300247C03007652464D70B50546D6
:10B160000C461E46FFF799FF70B9AB796AB1B3423E
:10B170000ED12979094B53F8213063B1114620468D
:10B18000984708B9064B236070BD48F21050FBE7A2
:10B1900048F21150F8E748F20350F5E7387C030015
:10B1A0007052464D2DE9F0410D460D4904461746B3
:10B1B000FFF780FF90B966683946B2792846FFF7F5
:10B1C00084FF58B93279074B53F8223023B129460E
:10B1D0002046BDE8F041184748F20350BDE8F08131
:10B1E0007052464D447C0300F0B528B14079D1B18E
:10B1F0008AB948F2135015E01846F8E7441E0025B6
:10B200004E5D0F5D575516550135013CA542F7D9E6
:10B210001B1A014402448342F0D2002B48F2115021
:10B2200008BF0020F0BD48F21050FBE72DE9F843BD
:10B230000C4600AF81461E49204615461E46FFF7C4
:10B2400039FF58BB1B492846FFF734FF30BBD4F801
:10B2500004806B68984524D198F80520396A3046F7
:10B26000FFF733FFD0B998F80430134A52F823801F
:10B27000B8F1000F18D0B9F1000F0AD10F4A32F817
:10B28000133033B107336A46DB08A2EBC3039D4694
:10B29000E94633462A4621464846C047BD46BDE8F2
:10B2A000F88348F24150F9E748F20350F6E700BF4F
:10B2B0007652464D7052464D507C0300587C030038
:10B2C000F8B50A4F0A4C0B4DE41B0121E408297024
:10B2D0000026A64203D102232B700020F8BD57F8A8
:10B2E000363098470028F9D10136F2E7A84F03001D
:10B2F000B04F03003C360020054B1A78022A04D0D8
:10B300001878431E5842584170470120704700BFCB
:10B310003C36002030B50023934201D1012006E0E5
:10B32000C55CCC5CA54203D08CBF0120002030BDA1
:10B330000133F1E72DE9F74F1E469DF830300193B8
:10B3400005468846174600239E424FEAC30403F190
:10B35000010248D1FF23D2005B0033F0FF0102D18C
:10B360000134A242F8D1002D42D0002E43D0B8F1D2
:10B37000000F43D0002F41D0324641463846FFF7F8
:10B38000C9FF00283DD04FEAD409FF2304F0070489
:10B3900023415BB205EB090A00931B48019B00683F
:10B3A00032462946FBF7D4FA8346C0B901464A46DD
:10B3B000284606F0FBFB2CB19AF80020009B1A40AF
:10B3C0008AF80020324641462846FFF7A3FF0028AE
:10B3D000E3D029463846FFF79DFF0028DDD05846C8
:10B3E00003B0BDE8F08FFB5C002BB4D11346ABE794
:10B3F00048F2135BF3E748F2145BF0E748F2105BA6
:10B40000EDE748F2175BEAE78C37002013B501241B
:10B410000094FFF78FFF02B010BD000070B51B4B0A
:10B420006A469A4206460D4605D3FFF765FF78B98E
:10B430004FF4054070BD164B16481749C01AC00896
:10B44000000440F00100FEF73BFF48F21950F1E71D
:10B45000124C236823B1124B1A68124B9A420FD038
:10B4600086B97DB9104811492060FBF74DFA0028D4
:10B47000E0D10B4B0B4A1A6023680D4A1A60D9E7DA
:10B480000020D7E748F21750D4E700BF00E00020C3
:10B49000B04F0300E04F03005C7C03008C370020BA
:10B4A000843700206572E54B403600208837002045
:10B4B0006169614D094B0A4A196891420AD1094AEA
:10B4C0001068094A0168914204D1002202601A60A2
:10B4D000FBF736BA48F20250704700BF84370020AD
:10B4E0006572E54B8C3700206169614D10B51346DC
:10B4F000154A6C4694420ED3D3B9144A1468144AC0
:10B5000094421AD1E0B913480A4600681249BDE8CE
:10B510001040FBF725BA114B11481249C01AC00858
:10B52000000440F00100FEF7CBFE48F2195010BDB8
:10B530000029E2D148F21050F9E748F20250F6E74C
:10B5400048F21750F3E700BF00E0002084370020E6
:10B550006572E54B8C37002088370020B04F030020
:10B56000E04F03005C7C03002DE9F0410D461746D7
:10B570000446F0B109B3144B1A68144B9A421FD118
:10B58000134E3B460A4601463068FBF7E1F948F2A4
:10B59000715398420FD1002211461046FFF7A6FFC3
:10B5A00048B93B462A4621463068BDE8F041FBF7E2
:10B5B000CFB948F21350BDE8F08148F21450FAE7D1
:10B5C00048F20250F7E700BF843700206572E54B70
:10B5D0008C3700200122FFF7C7BF000010B5064CD2
:10B5E0002068431C236005F0FFFE2368C82BC4BFFE
:10B5F0003C23236010BD00BFF82B002010B50F4C7A
:10B600002368052B02D1822006F0E8F82368072B77
:10B6100004D1832006F0E2F8002323602368084861
:10B62000084901332360084BC01AC008000440F0E9
:10B630000300BDE81040FEF743BE00BFF42B00201E
:10B64000E04F0300AD7C0300B04F03000448054BFE
:10B650000549C01AC008000440F00300FEF730BEE0
:10B66000E04F0300B04F0300757C03000448054B16
:10B670000549C01AC008000440F00300FEF720BED0
:10B68000E04F0300B04F0300917C030008B506F0C3
:10B6900049F806F07FF806F0E9F805F0BDFE0D491F
:10B6A000802006F0EFF80C49812006F0EBF80B49FA
:10B6B000822006F0E7F80A49832006F0E3F806F056
:10B6C000A9F806F00FF906F0A5F8431CF9D105F02A
:10B6D0007DFEF4E7DDB50200FDB502004DB60200C7
:10B6E0006DB602000369C1688B429DBF8268D218A3
:10B6F00002F1FF3203F1FF3394BF501A581A70471A
:10B700002DE9F041D0E9027405463E1B406896429F
:10B7100020448846144404D906F01FFAEC60BDE8C2
:10B72000F0813246E41B06F018FA224608EB0601C7
:10B730006868F1E72DE9F843C5680646894617466B
:10B740004FF000083469B3687068A54228BFE41858
:10B75000013C621B5C1BBC4228BF3C46944228BF94
:10B76000144649462844224606F0F7F9B3682544B2
:10B77000AB4208BF00253F1BA044A144F560E1D1C6
:10B780004046BDE8F883000010B5114C114AA26193
:10B790000223C4E90433104BE361A2644FF4007345
:10B7A0000E4A2362E264002310220D49A362E01DC9
:10B7B0006362E362A3656365E365226506F029FAC7
:10B7C0000849204606F025FA2023A37110BD00BFCA
:10B7D00090370020BC7C0300183800200838002077
:10B7E000C57C0300C97C0300F8B5184C182300FB86
:10B7F000033503FB00402544C46A012C0F4616465E
:10B8000011D024B1022C1BD000242046F8BD2846BC
:10B81000FFF768FFB042F8D3324639462846FFF7B3
:10B820006FFF3446F1E72846FFF75CFF8642344657
:10B8300028BF0446224639462846FFF761FFE4E761
:10B840002846BDE8F840FFF775BF00BF90370020DD
:10B85000FFF79ABF0C4B1B78062B10D10B4B1B68C4
:10B860001A070CD10A4B186800F0F003302B08D0EF
:10B8700000F0E000A0F1400358425841704700201A
:10B8800070470120704700BFE00F00F0E40F00F0A8
:10B89000E80F00F0094B1B78062B0CD1084B1B68F6
:10B8A0001A0708D1074B186800F0F000A0F1300328
:10B8B0005842584170470020704700BFE00F00F029
:10B8C000E40F00F0E80F00F008B5FFF7C3FF28B160
:10B8D0007D4B7E4A1B68C3F304231360FFF7DAFF36
:10B8E00010B17B4B7B4A1A60FFF7B4FF28B17A4B4B
:10B8F0007A4A1B68C3F342331360FFF7CBFF20B1D2
:10B90000774AD36823F08073D360FFF7A3FF40B179
:10B910004FF080430022C3F80C21C3F81021C3F874
:10B920003825FFF7B7FF10B16E4B03221A60FFF7FF
:10B93000B1FF40B16C4B05221A6001229A670022C8
:10B940009A603F225A60694B1B78062B50D1684B96
:10B950001B6819074CD1674B1B6803F0F003502B91
:10B9600046D14FF08052644BD2F80414C3F820152E
:10B97000D2F80814C3F82415D2F80C14C3F828150B
:10B98000D2F81014C3F82C15D2F81414C3F83015DB
:10B99000D2F81814C3F83415D2F81C14C3F84015A3
:10B9A000D2F82014C3F84415D2F82414C3F848156B
:10B9B000D2F82814C3F84C15D2F82C14C3F850153B
:10B9C000D2F83014C3F85415D2F83414C3F8601503
:10B9D000D2F83814C3F86415D2F83C14C3F86815CB
:10B9E000D2F84014C3F86C15D2F84424C3F870257B
:10B9F000FFF730FF28B1414B414A1B6803F04F036A
:10BA00001360FFF727FF48B14FF08043D3F80024BD
:10BA1000D20744BF6FF00102C3F80024394B1B6802
:10BA2000062B08D1384B1B68062B01BF374A136819
:10BA300043F480631360364AD2F8883043F47003CD
:10BA4000C2F88830BFF34F8FBFF36F8F4FF01023D2
:10BA5000D3F80022002A03DBD3F80432002B2FDABC
:10BA60002C4B0122C3F80425D3F80024002AFBD074
:10BA70004FF010221521C2F80012D3F80024002A3A
:10BA8000FBD04FF010231522C3F80422214B1A4695
:10BA9000D3F800140029FBD00021C3F80415D2F814
:10BAA0000034002BFBD0BFF34F8F19491A4BCA68E3
:10BAB00002F4E0621343CB60BFF34F8F00BFFDE79A
:10BAC000164B174A1A6008BD240300104035014088
:10BAD00074C007400DF0ADBA440200103C050040B0
