:020000022000DC
:1060000000000120756302005D6302005F6302000F
:106010006163020063630200656302000000000028
:1060200000000000000000000000000067630200A4
:1060300069630200000000006B6302006D630200F0
:10604000C99402006F630200099902006F630200A5
:106050006F6302006F630200859702006F630200A6
:106060006F6302006F6302006F6302006F630200E0
:106070006F630200CD9902006F6302006F6302003C
:106080006F6302008D7102006F6302006F63020094
:106090006F6302006F630200050B03006F63020071
:1060A0006F6302006F6302006F6302006F630200A0
:1060B0006F6302006F630200000000000000000038
:1060C0006F6302006F6302006F6302006F63020080
:1060D0006F6302006F6302006F6302000000000044
:1060E00000000000000000000000000000000000B0
:1060F00000000000000000000000000000000000A0
:10610000000000000000000000000000000000008F
:10611000000000000000000000000000000000007F
:10612000000000000000000000000000000000006F
:10613000000000000000000000000000000000005F
:10614000000000000000000000000000000000004F
:10615000000000000000000000000000000000003F
:10616000000000000000000000000000000000002F
:10617000000000000000000000000000000000001F
:10618000000000000000000000000000000000000F
:1061900000000000000000000000000000000000FF
:1061A00000000000000000000000000000000000EF
:1061B00000000000000000000000000000000000DF
:1061C00000000000000000000000000000000000CF
:1061D00000000000000000000000000000000000BF
:1061E00000000000000000000000000000000000AF
:1061F000000000000000000000000000000000009F
:10620000354936480A1A02D0072291438D4634494F
:1062100034480A1A06D00722914381F309880222E2
:1062200082F3148830483149314A00F044F831484B
:106230003149324A00F03FF831483249324A00F0E1
:106240003AF832483249334A00F035F83248334997
:10625000334A00F030F833483349344A00F02BF821
:1062600033483449344A00F026F83448344900228F
:1062700000F02CF833483449002200F027F8334866
:106280003349091A082902DB002202604160314AC1
:1062900090471F481F49884205D00268043003B464
:1062A000904703BCF7E700208646EC46002000211B
:1062B000294A9047FEE7884207D0521A05D0037852
:1062C00001300B700131013AF9D17047884202D098
:1062D00002700130FAE770470000012000E0002062
:1062E000000001200000012028A50300E42B00206D
:1062F000382C0020D0630200D0630200404E03001F
:1063000028A50300E42B0020E42B00201C500300F0
:106310001C5003001C5003001C5003001C500300C1
:106320001C5003001C5003001C50030028A5030050
:106330007CA50300382C0020382C0020382C0020AD
:10634000384E0020384E0020384E0020384E0020B5
:10635000386E00209D63020031B40200FEE7FEE7C4
:10636000FEE7FEE7FEE7FEE7FEE7FEE7FEE7FEE705
:1063700000F002B8FFF7FCBF0F484FF00701884359
:1063800085460E4880470E48016841F4700101605F
:10639000BFF34F8FBFF36F8FFFF732BF09480A4932
:1063A0000A4A884207D0521A05D0037801300B7090
:1063B0000131013AF9D170470000012059B60200BD
:1063C00088ED00E008500300D02B0020E42B0020D3
:1063D00008B5094B1B7853B1002003F027FB0120BF
:1063E00003F024FBBDE80840032003F01FBBBDE819
:1063F000084003F027BB00BF382C0020F8B57B4CC9
:10640000237805461BB100232370FFF7E1FF172D0A
:1064100000F28880DFE805F00C171743546576809A
:10642000888D888D959A9A9A9A9AC4C9D1D9E4E4AC
:10643000FFF7CEFF6E4800F05CFC6E4B0022044676
:106440001A702046F8BD002003F0D6FAF8B10020FB
:1064500003F0ECFA022D0CBF4FF4E1614FF47A61C6
:10646000644B1D704FF400404FF47A740025E0FB3C
:1064700001454FF4FA620023204629460BF0FEF94D
:1064800000220146BDE8F840594800F01ABC03F06C
:10649000C1FA022D0CBFC8214FF4C871E0E70020FB
:1064A00003F0AAFA40B1002003F0C0FA4FF448719B
:1064B000504B03221A70D5E703F0ACFAC821F7E776
:1064C000002003F099FA38B1002003F0AFFA4FF43E
:1064D0007A61484B0422EDE703F09CFA4FF4C8714F
:1064E000F7E7002003F088FA48B1002003F09EFA95
:1064F000404B05221A7040F6CD410022C2E703F05E
:1065000089FAF5E7002003F0BBFA3A4B06221A702D
:10651000002240F26661B5E7002003F07BFA354BBC
:1065200007221A7000248CE70120207003F0A8FADB
:10653000EEE70120207003F0A3FA00224FF400518F
:10654000A0E703F08EFA2B4B0C22EAE72A482B4EE9
:1065500000F0CFFBD5F1110504461CD0D8B9012DB0
:1065600013D0C8235D434FF400474FF47A700021E5
:106570004FF4FA620023C7FB05010BF07FF92246B6
:1065800001461D4800F09DFB0446022003F042FA3C
:106590000123337055E7022003F048FA0023F8E79F
:1065A000FFF716FF134B1222BBE7FFF711FF002086
:1065B00003F030FA0F4B1322B3E7FFF709FF012076
:1065C00003F028FA0B4B1422ABE7FFF701FF002082
:1065D00003F020FA012003F01DFA064B1522A0E774
:1065E00003F03FFA034B1D709CE700BF902C002086
:1065F000602C0020912C0020402C0020382C002002
:10660000044B1B6813F0010301D0FFF7F7BE1846D7
:10661000704700BF8C2C0020032811D8012A0AD112
:1066200001290FD100F10E02D2B20D4B00EB400058
:106630001A54002070470129F7D0022904D049B12B
:10664000072070470022F8E7054B00EB4000184494
:106650004270EEE7024B00EB400018448270E8E71E
:10666000802C002008B5012202210020FFF7D4FF72
:1066700008B1072810D1072202210120FFF7CCFF23
:1066800008B1072808D100210A220846FFF7C4FFF5
:1066900010B1072808BF002008BD00000388102B98
:1066A00010B502D0112B1ED010BD1A4C2168B1B903
:1066B00001220846FFF7B0FF08B1072824D10722BE
:1066C00002210120FFF7A8FF08B107281CD10422EE
:1066D00002210020FFF7A0FF08B1072814D123688A
:1066E00001332360E0E70B4A1368013B1360002B82
:1066F000DAD1FFF7B7FF0028D6D0074B1B68002B75
:10670000D2D0BDE810401847034B1B68002BE6D0E1
:106710009847E4E7982C0020942C002004F0E4BD76
:106720000021084604F094BD10F1360F0AD058B18C
:1067300048F2165248F2115310F1380F14BF1046A8
:106740001846704748F21450704708B5084611467D
:1067500002F07CFE002008BD30B5044685B0002064
:1067600002F0F6FD054678B9201D039004F0C5FA45
:106770000649039800952B462A4604F034FB05B0E1
:10678000BDE83040FFF7D0BF05B030BD4B67020019
:1067900008B5043004F0B6FA02F006FE002008BD89
:1067A00008B5043004F088FBBDE80840FFF7BCBF23
:1067B00008B5114604301A4604F0B3FABDE80840A3
:1067C000FFF7B2BFC30710B507D4F023054A40084E
:1067D000145C23401943115410BD0901C9B20F23A1
:1067E000F4E700BFD02C002030B5094B1C78094BD2
:1067F000196800239C4202DC0022104630BD11F8CB
:106800003350854201EBC302F7D00133F2E700BFFA
:106810009C2C0020E02C002013B504460191FFF7CA
:10682000E3FF38B143682BB10199204602B0BDE8BF
:106830001040184702B010BD034B044819680022ED
:10684000490800F03EBA00BFA02C0020A82C002070
:1068500010B5C0B2FFF7C8FF0446007802F088FF09
:1068600063785A1E53425341834208D1044BD3E903
:106870000023134303D1BDE81040FFF7DDBF10BD77
:10688000C82C002037B54308354AD35CC2074CBF3B
:106890001B0903F00F0304460D46042B35D8DFE82F
:1068A00003F003252C383C0079B30121FFF78AFF60
:1068B00000230DF107008DF8073000F0F7FA0120F2
:1068C000A4F12003C4F12001264A20FA01F100FAC4
:1068D00003F30B43A040D2E9004120430B43C2E93C
:1068E00000039DF8070000F005FB0EE0002918BF2B
:1068F00002212046FFF766FF07E041B10321FFF7C1
:1069000061FF01212046FFF787FF03B030BD012161
:10691000EFE70029F9D10421EBE709B10321E8E70A
:10692000FFF750FF29462046FFF776FF0DF10700DD
:106930008DF8075000F0BAFA0120A4F12003C4F149
:106940002001084A20FA01F100FA03F30B43A040AA
:10695000D2E9004124EA000021EA0303BFE700BFB7
:10696000D02C0020C82C00202DE9F041124E134FEE
:1069700000243378A34208DC114BD3E900231343EE
:1069800018D0BDE8F041FFF757BF3D6805EBC408DC
:1069900015F8340002F0ECFE98F801305A1E53420C
:1069A0005341181A4142414115F83400FFF76AFF7C
:1069B0000134DEE7BDE8F0819C2C0020E02C0020B3
:1069C000C82C0020092AF7B505460C4616463CD9C6
:1069D00002F00EFED8B11E4B1E481D601E4B1F4F0D
:1069E0001C701F4B002110221E600BF085F81D4B00
:1069F00000200021C3E90001013CE4B20326FF2C82
:106A00000BD1194A1948002100F050F903E002F0B7
:106A1000B7FD0028DFD003B0F0BD9DF8063015F8B3
:106A200034008DF8046005EBC40223F007038DF8F1
:106A3000063001A993788DF805303A4602F0E2FD60
:106A4000013CE4B20028DAD0E5E70720E3E700BF25
:106A5000E02C0020D02C00209C2C0020516802004B
:106A6000A02C0020C82C00206969020028500300D7
:106A700070B5084D084E00242B789C4201D30020AD
:106A800070BD3368012113F8340002F02DFE01348B
:106A9000F2E700BF9C2C0020E02C002010B5084B32
:106AA0001B6803EBC00413F8300002F061FE63784A
:106AB0005A1E53425341191A4842484110BD00BF63
:106AC000E02C00201FB50021039001AA44F2010030
:106AD000CDE9011100F004F805B05DF804FB0000F9
:106AE00010B572B603F05EFB03F09CF90028FBD1F1
:106AF000104B114C1149E41AE408240444F001003D
:106B000003F0ECFA0E4B1B68DB0700D500BE0D4905
:106B100044F0020003F0E2FABFF34F8F0A490B4B37
:106B2000CA6802F4E0621343CB60BFF34F8F00BF2B
:106B3000FDE700BF004F0300304F03002C5003005F
:106B4000F0ED00E03850030000ED00E00400FA052D
:106B5000D0E90223D1E90201994208BF90422CBF3B
:106B6000012000207047000008B50B4800F0F9FA3A
:106B70000A4B0B49D3E900231218D1E9000143F174
:106B800000038B4208BF824203D212F1807243F1AC
:106B900000031046194608BDE42B0020E82C002015
:106BA000602D002037B505460C460A4801A901F0C2
:106BB000A2FA60B10570446001A9064801F0C5FA67
:106BC00018B1054800F0D2FA002003B030BD04200F
:106BD000FBE700BF4C2D0020E42B002038B5184BFC
:106BE0001B78044613B90025284638BD0028FAD082
:106BF000037F03F0FF05002BF5D0FFF7B5FFD4E9C5
:106C00000223994208BF904214D3236903B9237722
:106C1000D4E90530984721690029E4D0237F03F0A7
:106C2000FF05002BDFD0D4E90223521843F1000303
:106C3000C4E902230348214602F055FAD4E700BF15
:106C4000F02C00205450030013B5114B1149186863
:106C5000019008231048582201F018FA044698B908
:106C60000E4A0F4801A900F069F9044660B90C48C2
:106C7000012100F059FA01230A4A0948194600F097
:106C8000BBF9094B01221A70204602B010BD00BFAB
:106C900050500300F42C00204C2D0020156D0200F4
:106CA000E42B0020FFFF7F00F02C00203AB10368A6
:106CB0005A614A1E51425141196100207047072014
:106CC000704738B5037F04460D4683B98261FFF7EC
:106CD0004BFF2369401941F10001C4E9020103B1EE
:106CE000256121460020BDE83840FFF75BBF00204A
:106CF00038BD0023014603770120FFF753BF401A38
:106D000020F07F4070470000014800F02ABA00BF21
:106D1000E42B00202DE9F04F85B0804600F00CFAFE
:106D200040B15A4AD2E9003113F1807341F10001B8
:106D3000C2E900310021404600F00DFA38B1544E4E
:106D4000336823B13068FFF749FF00233360012126
:106D5000404600F000FA20B1FFF706FF4D4BC3E9B3
:106D600000014D484A4F4D4EDFF8389103A901F01C
:106D7000FCF9002845D1DFF82491454EDFF828A121
:106D8000484602F0C6F93368002875D07BB13368F5
:106D9000D0E90201D3E90223994208BF90422DD2E3
:106DA00033681B7F1BB13168484602F09CF94846A6
:106DB00002F0A9F9D0E902B307460193FFF7D4FE28
:106DC000019BBBEB000463EB0105012C75F1000393
:106DD00045DBB4F5350F40D3FFF796FF304A024448
:106DE0004FF496030021504600F026F900283ED1CA
:106DF000336813B9404600F0F7F8376005B0BDE8D6
:106E0000F08F0378012B1DD0022B09D14FF0000A1F
:106E1000304602F078F9002834D080F81CA0F7E75B
:106E20003BB941680B7F23B901230B77304602F051
:106E30005AF903A9184801F0C3F903A9164801F04B
:106E400094F996E741683B68994202D100233B6080
:106E5000EFE7304602F060F9EBE7BA68C0E70021DF
:106E6000504600F06EF93846FFF7B8FE01E00D28F5
:106E7000F9D00023336083E7002BBFD1404600F0F8
:106E8000B7F8BBE7012389F80030D2E7E82C0020EF
:106E9000682D0020602D00204C2D00205450030050
:106EA000FFFFB400F02C0020E42B002070B5EFF3BE
:106EB000108672B60C4A946801239CB993600B4B00
:106EC0000B4DD3F8801029401160C3F88050D3F8DF
:106ED000841051604FF0FF32C3F88420047006B96B
:106EE00062B670BD0370FAE76C2D002000E100E08F
:106EF000FC06FFBD084B9A6810B55AB150B9EFF3C4
:106F0000108172B6054A1C6814605C685460986011
:106F100001B962B610BD00BF6C2D002000E100E099
:106F2000435882B03BB10023435043580193019B27
:106F3000012002B070471846FBE70000F8B5224B6D
:106F40004679224C43F82620214A224B9B1A04EB17
:106F5000C602DB0812791B04F70032B143F00200CD
:106F60001D4903F0BBF80820F8BD02680D88C2F87F
:106F7000085590F9045002798978002DADBF05F1CC
:106F8000604CDFF85CC002F00F0E0CF5614C4FEA6C
:106F90004111C9B2B4BF0CF80E108CF800136D0982
:106FA0000121DFF840C002F01F0201FA02F24CF8A2
:106FB0002520E21944F83600117143F00300074917
:106FC00003F08CF80020CFE7802D0020782D0020E2
:106FD000004F0300404F0300605003008250030045
:106FE00014ED00E000E100E0036801221A60704740
:106FF000036801225A60704773B501F15005AD0076
:107000000068ADB24FF480348C400026C0F80843CD
:10701000C0F84843465101F5A8714559019522F041
:107020007F42019D40F82120C0F844430BB1C0F8D5
:10703000044302B070BD00002DE9F74F0D4622F069
:107040007F4402684FF4803705F150068F40804638
:10705000B60002EB8500C2F84873B6B2C2F80873F6
:10706000D2F8041599464FF0000BD0F84035C0F81F
:10707000401542F806B05B1A9259009223F07F4304
:10708000012B009A4FEA850A0CD1264B4FF4806001
:1070900043F001039847D8F8003043F806B09B59F5
:1070A0000193019BD8F80010D1F80465C1F844732E
:1070B000A31B23F07F43012B1CD11A4B05F5A875A8
:1070C000013443F0010341F825404FF480609847B4
:1070D000D8F80030D3F804359E4209D1D8F80030F2
:1070E0000020C3F84473C3F8047303B0BDE8F08F05
:1070F0000D20FAE78A44C9F1FF13CAF84045D1F8D8
:107100000405221A013A22F07F4203F57F4393429D
:10711000EED3002AE2D10134CAF84045D1F8043553
:107120009842DAE7A050030003680222C3F8442320
:1071300009B1C3F80423704700684FF48271FFF768
:10714000EFBE4FF4803303FA01F10368C3F848132C
:10715000C3F80813704750318900006889B2FFF7FF
:10716000DFBE0368D3F804057047000090F90430CF
:1071700001215A0903F01F0301FA03F340320249C7
:1071800041F82230704700BF00E100E0024B034AA3
:107190001B681068184700BF802D0020782D002044
:1071A00070B5064D0646002455F8043B0BB1304639
:1071B00098470134042CF7D170BD00BF902D0020FA
:1071C000033080B240F2FE33984230B51FD8134BE3
:1071D0001A783AB91C895D892C440444A4B2B4F5E8
:1071E000806F0AD91A7DAAB99A8BDC8B224402449B
:1071F00092B2B2F5806F0DD801220A801446142293
:1072000002FB04335A8910445881002030BD48F2F3
:107210000860FBE748F20660F8E700BFC42D0020D5
:107220000B4A0C4B5188142000FB0131CB6833B959
:107230000420496810700122074801F07DBB07490E
:107240000523137002238B80012209680023F3E7D2
:10725000A82D0020C42D0020D02B00208C2E002033
:1072600007B5002305490093054A09680548082326
:1072700001F0CCFA03B05DF804FB00BF8C2E0020B7
:10728000B4500300D02B002007B500230146009323
:10729000034A0448082301F0B9FA03B05DF804FB7F
:1072A000AC500300D02B002013B500230C460093F4
:1072B0000146084A0848042301F0A8FA38B90749EA
:1072C000142303FB04140123237402B010BD48F2FD
:1072D0000D60FAE7A8500300D02B0020C42D002039
:1072E00037B50A480A4B42689C88196853880325B9
:1072F000033305709BB2002000909B0001EB8401DA
:10730000044801F083FA03B030BD00BFA82D00206F
:107310008C2E0020D02B002010B50146044800F030
:10732000EAFE1C22044600210AF0E6FB204610BDBE
:10733000782E002068B10268084B9A4209D1406853
:10734000074B984207D00133984214BF0320012015
:107350007047032070470020704700BFDEC0ADDEDD
:10736000FE011EF14388033300EB830399420BD3E4
:1073700082884FF6FF739A4208D0038833B1806841
:10738000431C584258417047022070470120704703
:107390002DE9F0410D460223154F2B80164600F5CE
:1073A000805100F108044FF001088C420ED223688E
:1073B00001330BD02046FFF7D5FF48B10EB186F858
:1073C0000080022809D14FF480632B80BDE8F08152
:1073D000A3683A68934200D93B602B8862880333E4
:1073E00013442B806388033304EB8304DDE700BF81
:1073F000BC2D002038B5144B14220D4602FB003082
:107400002B68446804F58051A3B15C88033403EB16
:1074100084048C4215D22368013312D02046FFF732
:10742000A1FF012808D002280BD00028F1D12C6040
:10743000012038BD0834ECE76388033304EB830490
:10744000E7E70020F5E700BFC42D0020426873B5D0
:1074500004460D466AB3244BD9688A4229D31B6976
:107460009A4226D812F0030323D1204900890989C2
:1074700088421ED12068916888421AD11C49486808
:10748000824203D900F5805082420DD389698A4235
:107490000CD901F580518A4208D201222A80B3FA20
:1074A00083F0400902B070BD1A46F7E748F209635D
:1074B000F5E700232B801E460196288801A9FFF7D7
:1074C00099FF30B92B8801339BB2012B2B80F3D964
:1074D000E8E7019B226899689142EED16360034B13
:1074E0001B892381DEE700BFD02B0020A82D0020C0
:1074F000C42D00202DE9F8431C461D4B1B78064681
:107500000F46154673B382B37CB3DFF86C804FF03F
:107510001409A388012B02D948F2096020E009FB75
:1075200003F318F803302BB9A0882146FFF762FF58
:1075300020B92060A3880133A380EAE723681EB145
:10754000998832889142EFD11FB119883A889142C7
:10755000EAD19A68C5E90023064B1B892B810020DC
:10756000BDE8F88348F20160FAE748F20460F7E703
:10757000A02D0020A82D0020C42D002008B5074B09
:107580005888191DFFF736FF18B1BDE80840FFF70E
:10759000A7BEBDE80840FFF743BE00BFA82D0020EE
:1075A0002DE9F04FA44FDFF8B49289B00646B846F3
:1075B0003B6823B9A148494600F0D7FD3860D8F8A8
:1075C000005029784B1E052B07D8DFE813F0220066
:1075D0007C007C000E010E01660148F20E6414224C
:1075E000002103A80AF088FA41F61D539C4208BF07
:1075F0000024D8F8003004941A78013A052A00F2E1
:10760000F681DFE812F0E201E6010602160222022C
:107610002C022EB18A4B00225A604FF40644DEE75A
:107620002B79032B1DD8DFE803F015022B36854993
:107630000B78022B08461AD00B7D022B4FF001036A
:1076400017D114225343C2180020C8545068FFF7C2
:107650001BFE03E001232B71FFF702FE002800F060
:10766000BE80774B00225A6048F20D64B7E70023D2
:10767000E7E7734A13700023536041F61D54AEE7E9
:1076800071497248002302222B718A800968012205
:1076900001F052F9E2E76C4C00262E712068694D2A
:1076A000FFF7F2FD6A4BD4F800C05A881423534305
:1076B000EA18EE5451682160A188C2F804C0118113
:1076C0000222A280CAE7B5F814A0AA7DDFF874B13F
:1076D000AEB1022AEB8806D9142101FB0AB1DA1CEB
:1076E000088902440A81142202FB0ABAC3F57F43C7
:1076F000BAF80A20FD331344AAF80A308DE71423A0
:1077000003FB0AB318895C6804EB8004062A69D875
:10771000DFE802F0274E36441D5A040041F61D549E
:10772000AA7DEB88022A06D9142101FB0AB1DA1CD2
:10773000088902440A81142202FB0ABAC3F57F4376
:10774000BAF80A20FD331344AAF80A3047E7414843
:10775000414900234360AB690360FFF777FE0028CF
:107760005BD00223AB75002300930423EA18214663
:10777000364801F04BF8002831D048F20D64CFE7CD
:107780002B69002B14BF03230123AB750023009347
:1077900005F10C02042304F10801E9E70123AB75AC
:1077A0000022EB8800922A699B0004F10C01DFE7BC
:1077B00003290CBF05230623AB7500230093042384
:1077C00005F10802E118D3E70623AB75224B1988AF
:1077D000204B5868FFF768FD04460028A0D109B087
:1077E000BDE8F08F48F20E649AE7002E7FF415AFE3
:1077F0002B79012B34D0022B3FF43FAF002B7FF4C9
:10780000ECAE02232B710DF10A01EB68039303A880
:10781000CDE90466FFF71AFE10B948F20964DEE606
:107820000498BDF80A108388EB8003882B81FFF74A
:107830003BFD044627E000BFC02D0020782E00202D
:10784000A02D0020C42D00208C2E0020D02B002045
:10785000A82D0020842D0020982E0020B82D002077
:10786000804B03AA3146A81DFFF744FE7D4B04461A
:1078700068B999880498FFF717FD044648F2096330
:107880009C423FF4FAAE002C7FF4A9AEA7E7082291
:10789000314618460AF030F9F0E7002E7FF4BDAE0D
:1078A000714B1A7BB2B11E731A78013A062A3FF661
:1078B00094AE01A151F822F05F79020085790200AF
:1078C000A3790200A9790200DB750200AF790200FA
:1078D000C17902001A78072AE6D801A151F822F0EE
:1078E00001790200A9780200A97802002779020034
:1078F0003B7902005B7902005B7902002379020088
:107900001A895A4901321A8100225A801A730A7858
:10791000B2FA82F252099A720A7DB2FA82F25209DE
:10792000DA72012207E0524958688A884088033297
:1079300002448A8002221A70B6E74C4C5A884C499D
:10794000142505FB0242086854685060888810813D
:1079500002228A800C600622EDE70722EBE79A7A82
:1079600032B9DA7A8AB900221A705A805A6084E6EB
:107970003E4900229A72CA68002AF2D1097C002985
:10798000EFD05A80FFF7FAFD53E70022DA72374A48
:10799000116A0029E7D192F82420002AE3D00122BD
:1079A000EFE7FFF79DFC44E7FFF73AFC41E72F4A7A
:1079B0005B88142101FB03235868FFF765FC38E757
:1079C00000225A60FFF74CFC33E700238DF80C309F
:1079D0000DE001228DF80C201A89ADF818209A8844
:1079E000DB680593ADF81A2000238DF81C3003A83E
:1079F000FFF7D6FB002649461E48C8F8006000F095
:107A0000DFFB1D48012100F095FC00287FF4D0AD7C
:107A1000E5E602228DF80C201A89ADF818209A8824
:107A2000ADF81A20DA689B7D05929A1F53425341A4
:107A3000DBE703228DF80C20DA88ADF818201A89CC
:107A4000DB68ADF81A200593D1E704228DF80C20ED
:107A5000DB88ADF818300023ADF81A30F3E70523C2
:107A6000B4E700BF9C2E0020A82D0020C42D0020CC
:107A70008C2E0020782E0020882E00204068FFF7F2
:107A80008FBD000008B50548012100F03BFC18B986
:107A9000BDE80840FFF784BD08BD00BF882E002068
:107AA0002DE9F3419846374B1B7806460D46002BCF
:107AB0005CD000295DD009884FF6FF7399425BD0F6
:107AC0006B88002B58D06B689B0758D14AB92F8917
:107AD0000DF102013846FFF773FB30B102B0BDE88B
:107AE000F08113885788ADF8023001A8FFF714FC25
:107AF000044660B9BDF80230234A142101FB032378
:107B000058890338C01B588148F20760E6E780F8BF
:107B1000008000238375BDF8023083826B680361A7
:107B200001211A4800F0FAFB2B882381B8F1030FDA
:107B30006B88A38004BF0423A3754FF0000508BF22
:107B40003368E06008BFA3611148E780658101A93F
:107B500000F0FBFA36B1E36833600E4B75601B89A9
:107B6000B5723381FFF78EFF0020B7E748F201605E
:107B7000B4E748F20460B1E748F20360AEE748F2C8
:107B80000260ABE7A02D0020C42D0020BC2D0020FA
:107B9000782E0020A82D002008B50346074802686B
:107BA000042A08D00168064A42F82130012100F079
:107BB000B5FB002008BD48F20B60FBE7942E0020C7
:107BC000902D00202DE9F04F89B01422002103A848
:107BD00009F092FF794A137803F0FF010091904673
:107BE0003BB103A8FFF7DCFA0027384609B0BDE82F
:107BF000F08F101D00F0AAFB0028F5D140F6F873B5
:107C00004FF080521B685C1C08BF6D4B6D4C08BF69
:107C10001B6811695269581C08BF02FB01F32361FC
:107C20006949A3F5405300222046E36000F0BCFD03
:107C3000019407460028D8D164496548DFF8A4B10B
:107C40001C238C2200F022FABA463D464FF003096D
:107C50003C46019BDE6856443046FFF76BFB01282B
:107C600062D0032817D000283DD15A494FF0140C98
:107C70000CFB04FC01EB0C0201F80C0056600CF14B
:107C800010020CF1080C0A4430466144FFF780FBF7
:107C900045F0020545E03268531C02D04E4B9A4233
:107CA00034D1321D06F58051106801302ED10432D6
:107CB0009142F9D1DBF800203AB902220123CBF836
:107CC0000060ABF8042000930BE014226243414BA8
:107CD000022099189854414A4E605480013408811A
:107CE000A4B245F001050AF5805ABAF5405FB0D15B
:107CF000B9F1010F98BF0025EDB2022D03D0062D7A
:107D000031D0002D39D148F20A676EE7314914228B
:107D10006243881809F1FF394660032088541FFA2E
:107D200089F90134A4B2DEE7009B6BB1294B142220
:107D30006243991802209854DBF800204A60274AD1
:107D4000088154800134A4B200222549CBF8006098
:107D50003046FFF71DFBBBF80420022A0CBF0422AB
:107D600008221543BFE7012388F8003003A8002349
:107D7000C8F80430FFF714FA37E702A8FFF7CCFA87
:107D8000C8B10123013D03700A2D09D8DFE805F0D1
:107D900006080608070807080F110F0000230371E3
:107DA00002A90B4800F0D1F9FFF76CFE1DE7032391
:107DB000F5E70223F3E748F2076716E7A02D002056
:107DC00014100010D02B0020B0520300EC2D002026
:107DD000782E0020C42D0020DEC0ADDEA82D0020AE
:107DE000902E00208C2E002073B50D460446C8B19D
:107DF000C1B10DF10601FFF729FBB0B10C4BBDF885
:107E000006006668142202FB003001210C3000F0ED
:107E100085FA63682E600C336B600123A372002027
:107E200002B070BD48F20460FAE748F20960F7E773
:107E3000C42D002013B50446A8B10DF10601FFF7CB
:107E400005FB98B10C4ABDF80630142101FB032351
:107E5000DA6872B1A27A62B1DA680020013ADA60B7
:107E6000A07202B010BD48F20460FAE748F209605F
:107E7000F7E748F20560F4E7C42D00200223002252
:107E8000FFF70EBE18B103230022FFF709BE48F228
:107E900004607047114B1B7813B50446ABB14FF625
:107EA000FF73984214D001A8FFF736FA98B1052362
:107EB000037001230371C48001A9094800F045F94A
:107EC000FFF7E0FD002002B010BD48F20160FAE7C4
:107ED00048F20360F7E748F20760F4E7A02D0020BE
:107EE000782E00200F4B1B7807B5A3B101A8FFF730
:107EF00013FA98B10623037001A90B4800F025F985
:107F00000A4B1A780AB101221A73FFF7BBFD002051
:107F100003B05DF804FB48F20160F9E748F207603E
:107F2000F6E700BFA02D0020782E0020A82D00200D
:107F300007B5ADF80600ADF804100DF1060001A973
:107F4000FFF7D8FA03B05DF804FB07B51346ADF8A8
:107F500006000A4600200DF10601FFF7CBFA03B038
:107F60005DF804FB07B51346ADF806000A460DF1AF
:107F700006000021FFF7BEFA03B05DF804FB20B154
:107F800019B103680B600020704748F20460704725
:107F90002DE9F84F3B4B1B780446002B6CD0002892
:107FA0006DD0DFF8E4A01222002109F0A5FD032323
:107FB00023804FF0000BD04614274FF00109DAF868
:107FC0000410BAF80A50BAF808600846FFF7B2F988
:107FD000032808BF2388628804BF03F1FF3323808E
:107FE00007FB0B832E44DB681344638023891D4405
:107FF00063892581B6B233446381C6F58066A3895F
:10800000B6B2B34201F1080538BFA68101F580512F
:10801000A94229D92B68013326D02846FFF7A2F9B7
:1080200001280AD0022815D00028F1D1A3880133F5
:10803000A3800AE04FF0010BC1E7E3880133E3803E
:10804000E3896A8803331344E3816B88033305EBC8
:108050008305DDE7E38884F810900133E380E3894A
:10806000491B03EBA101E1810AF1140ABBF1000FE6
:10807000E0D00020BDE8F88F48F20160FAE748F24E
:108080000460F7E7A02D0020C42D002010B561B1D9
:10809000B2FBF3F403FB1424A4B244B9C0E9001406
:1080A00084608281C381204610BD0E20FCE7092038
:1080B000FAE782B050E8022FC188B2EB324F4FF09E
:1080C000000317BF92B241EA014142EA014104E0D4
:1080D0004268B2EB324F08BF012340E80212002A87
:1080E000E8D18DF807309DF80730002B0CBF112028
:1080F000002002B0704737B550E8013F9DB2C489F7
:1081000025448489A54228BF2D1B0489A54202BFAE
:10811000BFF32F8F002207E0C5EA030540E80154B2
:10812000002CE9D14FF001028DF803200193019B4F
:108130009DF803200B6002F0FF0322B10B8800685A
:10814000184403B030BD1846FBE70A884B889A42B2
:1081500009D150E8012FC2EA024240E80123002B76
:10816000F7D1012070470020704737B550E8023F33
:108170001FFAA3F5C488A54202BFBFF32F8F0022C8
:108180000DE0C48925448489A54228BF2D1BC3EA7C
:10819000054540E80254002CE8D14FF001028DF86B
:1081A00003200193019B9DF803200B6002F0FF0365
:1081B00022B14B880068184403B030BD1846FBE775
:1081C0000A884B889A4209D150E8022FC2EA22421B
:1081D00040E80223002BF7D10120704700207047B0
:1081E00001F01F024B090121914000EB830000F0D8
:1081F00065B84B0910B501F01F040121A14000EB47
:10820000830000F04FF8E04000F0010010BD01F0E5
:108210001F0301229A404B0900EB8300D14300F079
:1082200065B84B0901F01F0150F82300C84000F069
:10823000010070472DE9F0474F1E7F0980460E462A
:108240000137002558F8254008EB8509E44394FAE6
:10825000A4F4B4FA84F44FEA451A202C06D101356F
:10826000AF42EFD834462046BDE8F0875444A642DA
:10827000F5D921464046FFF7BCFF0028F3D0D9F8D6
:108280000040E44394FAA4F4B4FA84F4E5E710B5AA
:10829000034653E8000F0A4643E8002494F0000F19
:1082A000F7D110BD10B5034653E8000F40EA0102B4
:1082B00043E8002494F0000FF6D110BD10B503463A
:1082C00053E8002F42EA010043E8000494F0000F55
:1082D000F6D110BD10B5034653E8000F00EA0102C5
:1082E00043E8002494F0000FF6D110BD10B503460A
:1082F00053E8002F02EA010043E8000494F0000F65
:10830000F6D110BD10B5034653E8000F00EB010293
:1083100043E8002494F0000FF6D110BD10B50346D9
:1083200053E8002F02EB010043E8000494F0000F33
:10833000F6D110BD10B5034653E8002FA2EB0100A3
:1083400043E8000494F0000FF6D110BD0121FFF7BF
:10835000A9BF0121FFF7B2BF0021FFF7BBBF10B5D6
:1083600090B1D0E9012301689B1ADBB20A60013B9E
:10837000DBB2FF2B026802D10020107110BD116822
:108380004C1C14600B70F2E70E20F7E737B505467A
:1083900000240DF107008DF80740FEF787FD2A68DD
:1083A0006B68116899420ED9481E106011F8014C93
:1083B000EB68298A01FB0434AB6811791B1ADBB224
:1083C000994238BF13719DF80700FEF793FD2046D0
:1083D00003B030BD37B5054600230DF107000C464C
:1083E0008DF80730FEF762FD2A681368591C11608A
:1083F000E968641A298AB4FBF1F41C709DF807003F
:10840000FEF778FD03B030BD826810B504462AB18E
:1084100043690168006998470023A36010BD0EB44A
:1084200003B5039921B104AB01AA019300F06EF8E2
:1084300002B05DF804EB03B07047826830B40468A2
:10844000551C8560A154D0E901329A4202D330BC58
:10845000FFF7DABF30BC70472DE9F84F9846DDE9E9
:108460000A43154682460F460A464FF00109AA42C2
:108470000FD2C14538BFC14613F0010B01D16CB911
:1084800000240126B8F1010F1BD908F1FF386E4313
:10849000F8E709F10109B2FBF5F2E8E79B070ED511
:1084A000B8F1000F0CBF30262026A145E9D2013CCF
:1084B00031465046FFF7C1FF002CF6D1E0E72026F9
:1084C000F3E7B7FBF6F39D42E1D9DFF83C80B7FB59
:1084D000F6F3504618F8031006FB1377FFF7ADFFCD
:1084E0003346AB42B6FBF5F6F1D2BBF1000F02D03A
:1084F0000CB1A14501D3BDE8F88F20215046013CC5
:10850000FFF79BFFF4E700BFC55003002DE9F74FCD
:10851000054617468846002900F0428118F8011BDD
:1085200049B92B7B002B00F03B81284603B0BDE806
:10853000F04FFFF769BF252940F0B780002698F873
:1085400000302D2B424608F1010823D0302B24D0D7
:108550002B2B25D000242A2B02F1010123D13B68CB
:108560001A1D1B683A601C440A4613782E2B26D12C
:1085700001324FF0000A104610F8011BA1F1300C37
:10858000BCF1090F1DD80A2303FB0A13A3F1300A1B
:108590000246F0E746F00106D1E746F00206CEE7D4
:1085A00046F00406CBE711F8013CA3F1300009289E
:1085B000DBD80A2202FB0434303C0A46CBE74FF0FA
:1085C000000A12F8011B01F0FB0068289046F8D061
:1085D000782909D86F290CD8632962D022D8252997
:1085E00063D0582900F0888098F80030002B95D18E
:1085F00097E770390829F7D801A353F821F000BF95
:108600007B870200E9850200E985020009870200F4
:10861000E9850200E7860200E9850200E98502009B
:10862000F9860200642901D06929DDD13A68D2F8BF
:108630000090111D89EAE9723960A2EBE9724FF0EE
:10864000010B092A35DCD34538BFD3462CB1B9F12B
:10865000000F01DB720700D5013CB30702D5BAF168
:10866000000F03D0F00701D44CBB0024B9F1000F78
:108670002DDAC9F100092D212846FFF7DEFE06F0AC
:108680000302022A04D1BAF1000F01D11CBB00245D
:10869000CDE9004653460A2249462846FFF7DCFE4C
:1086A000A2E73B681A1D19783A602846FFF7C5FE15
:1086B0009AE70A230BF1010BB2FBF3F2C1E7A345E2
:1086C000D4D220212846013CFFF7B7FECCE7710742
:1086D000D5D52B21D0E7A345DAD230212846013C5D
:1086E000FFF7ABFED2E73968CDE900460A1D3A60D4
:1086F00053460A220968D0E739680A1D3A60CDE975
:10870000004653461022F5E73B681A1D3A6016F002
:108710000106D3F8009028D1B9F1000F03D04846E4
:1087200009F03FFA0646B44200D904BB09F1FF390B
:1087300019F8011F00293FF457AF2846FFF77DFEC7
:10874000F6E728460136FFF778FE19F806100029EB
:10875000F7D1A642BFF448AF002C3FF445AF20212B
:108760002846013CFFF769FEF3E70026EDE72021EC
:108770002846013CFFF761FED5E73B681A1D3A60C9
:10878000302128461C68FFF758FE78212846FFF75D
:1087900054FE00220823CDE90032214610227CE756
:1087A00003B0BDE8F08F00BF13B50B46114680B98A
:1087B000104B1148114AC01A0E23C0080093104BE9
:1087C0000004104940F0010001F09FFC0E2002B0AF
:1087D00010BD4BB9074B08480B4AC01AC0080E23FE
:1087E00000930004064BECE703601B6802B0BDE891
:1087F00010401847004F0300704F0300D55003008E
:108800006B520300DA500300095103002DE9F341D4
:1088100088B93D4B3D483E4AC01AC0080E243D4B26
:10882000009400043C4940F0010001F06EFC204639
:1088300002B0BDE8F0814AB9334B3448374AC01A18
:10884000C0080E24334B00940004EBE7D0F800E09E
:10885000BEF1000F09D12C4B2C48314AC01AC00878
:1088600008242C4B00940004DCE74BB9264B274826
:108870002C4AC01AC0080924264B00940004D1E7F2
:108880004568D5F80480B3FBF8F508FB15354DB104
:108890001D4B1E48244AC01AC00809241D4B0094D1
:1088A0000004BFE78D0709D0174B18481F4AC01AAC
:1088B000C0081024174B00940004B3E712F0030F14
:1088C00009D0114B11481A4AC01AC0081024114B84
:1088D00000940004A6E7C568A9420BD34D1EEC180E
:1088E0000569AC4206D8DEF80C40A44602B0BDE8EB
:1088F000F0416047044B05480E4AC01AC0081024D6
:10890000044B009400048DE7004F0300704F0300F8
:10891000D55003007D520300DA5003005751030085
:1089200003510300165103005D51030087510300FA
:108930009F510300C2510300F7B580B92A4B2B4861
:108940002B4AC01AC0080E242A4B009400042A495E
:1089500040F0010001F0D9FB204603B0F0BDD0F893
:1089600000C0BCF1000F09D11F4B2048234AC01A98
:10897000C00808241F4B00940004E8E74AB91A4BCA
:108980001A481F4AC01AC00809241A4B0094000450
:10899000DDE74768D7F800E00EF1FF370F4209D056
:1089A000114B1248174AC01AC0081024114B0094EA
:1089B0000004CCE7C768B9420CD304694D1E0EFB16
:1089C0000255A54206D8DCF81040A44603B0BDE825
:1089D000F0406047044B05480B4AC01AC0081024F9
:1089E000044B00940004B2E7004F0300704F0300F3
:1089F000D550030090520300DA50030003510300E6
:108A000016510300E95103000F52030029DF70479C
:108A100028DF704770B503689E6886B004460D462F
:108A20006EB114220021684609F066F8A368059328
:108A3000237901952BB1012B0DD06846B04706B0C4
:108A400070BD01238DF8003023690293E36803931E
:108A500063690493F1E702238DF80030E3681B0398
:108A60000293F5E70846704700207047024B187ADA
:108A7000003818BF01207047402F0020034B187AA0
:108A80000122B0FA80F05A7440097047402F00204C
:108A900008B510461A4609F006F8002008BD000087
:108AA00008B514220021044809F026F80348FFF70E
:108AB00000FB002008BD00BF402F0020302F002009
:108AC00010B5094C094B43602046FFF73FFC40B905
:108AD00007F0FEFF064920741C2306488C22FFF78E
:108AE000D5FA002010BD00BF402F0020A452030083
:108AF000A42E0020302F002070B5244C244E237A61
:108B000025463BB923492448FFF72FFB306008B9BD
:108B1000606070BD022334682B72237973B1012B1E
:108B200024D020460321FFF775FF00232B726B60D2
:108B300018491948BDE87040FFF742BBD4E9052346
:108B4000D21AB2F5805FD4E9031028BF4FF48052E7
:108B50009208012A38BF012219441844FFF756FF32
:108B600050B11128DDD101232B72D2E7D4E90303E0
:108B70001844FFF74DFFF3E72B7C002BC9D10146CA
:108B8000BDE87040022000F009B800BF402F00206F
:108B9000582F0020542F0020302F002038B5831E7E
:108BA000012B45D8234C237A002B41D0022B09D12D
:108BB000032830D0204B00221B68E2601A793AB1BA
:108BC000012A22D0637C7BBBBDE83840FFF794BF0D
:108BD000D3E905128D1AB5F5805F94BF521902F5DD
:108BE00080529A619142EDD102284FF0000308BFF4
:108BF00019462372104B18BF0D211868FFF70AFFA2
:108C00000E490F48FFF7DCFADCE71A6901321A61F6
:108C10005B699A42E7E7E3680133082B01D8E36018
:108C2000D0E70023E360DFE7BDE8384007F040BF4E
:108C300038BD00BF402F0020582F0020542F0020A7
:108C4000302F002000F0FD03012B08D1044B00223F
:108C50005A74421E504250411874FFF74DBF70477E
:108C6000402F002010B5064C201DFFF76FFB28B9E0
:108C7000637C1BB9BDE81040FFF73EBF10BD00BFCD
:108C8000402F00202DE9F34180460D460F4801A9F1
:108C900016461F46FFF72FFA0446A8B11C220021F2
:108CA00008F02AFF2D0B0123237101A90748C4F8FE
:108CB0000080A760E5606661FFF747FAFFF7D2FF23
:108CC000002002B0BDE8F0810420FAE7302F002038
:108CD0002DE9F74381468846104801A917461E46EC
:108CE000FFF709FA0446B0B11C22002108F004FF86
:108CF00000250A9BA36001A9C4E9037807482571F0
:108D0000C4F800906661FFF720FAFFF7ABFF284632
:108D100003B0BDE8F0830420FAE700BF302F002045
:108D20002DE9F84FB0F806A04579D2F800B09DF8CB
:108D300028900AFB05F5043D88460BEB0301A94288
:108D400003F1040488BFA5EB030BB4FBFAF6074656
:108D50000AFB1644C2F800B04EB9AAEB04055D4503
:108D600028BF5D46BBF1000F04D1BDE8F88F3F6816
:108D7000013EF1E7043408EB06003C442A46B9F111
:108D8000000F0DD02146ABEB050B08F08CFEDA4549
:108D90002E443F6855464FF0000428BF5D46E1E78A
:108DA00001462046EFE7FFF7DABAF8B54679014603
:108DB000721E0546002393422D6803D30024A64269
:108DC00002D8F8BD0133F6E70F682846FFF702FB2B
:108DD00001343946F3E72DE9F843068ACD1C0746EE
:108DE000FFF7D4FA043E35440446B5FBF6F5F0B17E
:108DF0004FF48073EDB28380C680013D07608146E9
:108E00004FF00008A84512D23846FFF7BFFA0646D1
:108E100048B163790133637108F10108C9F80000B2
:108E200007608146EEE72046FFF7BFFF3446204645
:108E3000BDE8F88301210430FFF770BA10B50121B5
:108E400004460430FFF776FA10F0FF0F04D12046F5
:108E5000BDE81040FFF7A9BF10BD1FB50392002267
:108E6000009203AAFFF75CFF05B05DF804FB1FB595
:108E700003920122009203AAFFF752FF05B05DF8AA
:108E800004FB41DF70470000064B10B500241C7046
:108E9000054B1C60BFF35F8F0449054800F00DF9D6
:108EA000204610BD642F0020682F0020DC520300F4
:108EB0005C2F002007B500230DF107008DF8073067
:108EC000FDF7F4FFF1EE103A23F09F03E1EE103AC4
:108ED000BFF35F8F094B4022C3F884219DF8070040
:108EE000FEF708F807F0F4FD20B1FFF7CAFF03B062
:108EF0005DF804FB20BF40BF20BFF8E700E100E0C1
:108F0000026813685268934291BFD01A806801309A
:108F1000801888BFC01A704703682DE9F0411F68A8
:108F20001E6815465A68964286BF83680133961BB1
:108F30008846C268416888BF9E1BB542044607FB4D
:108F400002110CD86A43404608F0ADFDA3683D44C9
:108F50009D4288BF002523681D60BDE8F08106FBA7
:108F600002F73A46404608F09EFDE2686168AD1B94
:108F70006A4308EB070008F096FDECE70368816898
:108F80001A685B688B4234BF01330023D31A5842FE
:108F900058417047F7B5002304460DF107000D4610
:108FA0008DF80730FDF782FF2046FFF7E7FF10B18D
:108FB000237C002B3CD12268A66853685168B142DB
:108FC00034BF01310021516030B11168A068814285
:108FD00034BF013100211160E2686068511E072929
:108FE00020D8DFE801F004101F141F1F1F182A7873
:108FF000C2542046FFF784FF23689A68824200D259
:109000009860002415E02A8820F81320F1E72A68E8
:1090100040F82320EDE7D5E9006700EBC300C0E985
:109020000067E6E7294602FB030008F03CFDE0E7A5
:1090300004249DF80700FDF75DFF204603B0F0BD56
:109040007FB5054601911446AAB10DF10F00002627
:109050008DF80F60FDF72AFF2846FFF751FFA04269
:1090600001990BD322462846FFF756FF34469DF858
:109070000F00FDF73FFF204604B070BD0524F6E762
:1090800037B5044600250DF107008DF80750FDF7B0
:109090000DFF0C222946206808F02EFD9DF80700E0
:1090A000FDF728FF03B030BD836800225A60C3E992
:1090B00004229A60DA601A6070470B684A6843605D
:1090C000934208BF0023016008BF436070474368B4
:1090D00043B10268916852680B449342436004BFF5
:1090E00000234360704770B5446806460D4620680B
:1090F00018B1B3682946984718B923682B602560D2
:1091000070BD2468F3E74368186808B102681A6004
:1091100070474368186870474368186800B970471B
:10912000884203D102681A60012070470346006834
:10913000F4E7000010B50D49A1F59472914201D8F1
:1091400000200FE08C1AE30F03EBE4035B1002EB4B
:10915000C30452F83330834205D802D204F1080226
:10916000ECE7606810BD2146E8E700BFE857030060
:1091700008B5FFF7DFFF024B002808BF184608BDFF
:10918000AB5603000B7B23B14B68036000230371D4
:1091900070470B6803600123F9E7000038B5074CFE
:1091A000051E04F1080318BF1C4623682BB11A687A
:1091B00022605B6828469847F7E738BD742F002087
:1091C00020B9054B01225A70FFF7E8BF012802D1F0
:1091D000014A9070F8E770476C2F002020B9034BCC
:1091E00001225A70FFF7DABF704700BF6C2F0020D2
:1091F00038B50B4C237883B90A486360A3602361B8
:10920000E36000F037F9054607F062FC08B900F0AA
:109210003DF901232370284638BD8525FBE700BFB3
:109220006C2F0020C191020037B50B4C00230DF1CB
:1092300007008DF80730FDF739FEE368013BE36076
:10924000E56815B900F034F9A5709DF80700FDF741
:1092500051FE03B030BD00BF6C2F0020012813B5B4
:1092600008D003281CD018B9104B0122C3F8802065
:1092700002B010BD0E4C00230DF107008DF8073031
:10928000FDF714FE23780BB9FFF7B2FFE3689DF8F2
:1092900007000133E3600123A370FDF72BFEE7E72E
:1092A00000F0F4F8FFF7C0FFE2E700BF00E100E0E4
:1092B0006C2F002031DF70471FB500238DF80700A9
:1092C0000DF10F008DF80F30FDF7F0FD07F000FCF9
:1092D00050B909480DF10701FFF75CFE0648FFF79A
:1092E0004DFE08B100F056FB9DF80F00FDF702FEA1
:1092F00005B05DF804FB00BFA04E030007B520B128
:1093000003280BD003B05DF804FB0F4B1B78012B37
:10931000F8D100F03FFB00F045FBF3E700230DF12F
:1093200007008DF80730FDF7C1FD07480378012BD2
:1093300005D10649013000F0EDFA00F019FB9DF867
:109340000700FDF7D7FDDDE7D02F0020B99202001E
:1093500013B5124C2378FBB9114A8DF80730002859
:1093600008BF10460288A4F801200DF10700FDF7A0
:109370009DFD07F0ADFB30B90A49601C00F0CAFA48
:1093800040B900F0F5FA9DF8070001232370FDF7BE
:10939000B1FD002002B010BD8520FBE7D02F0020DA
:1093A000F2570300B992020007B500230DF1070040
:1093B0008DF80730FDF77AFD07F08AFB18B900F049
:1093C000E9FA00F0EFFA9DF80700FDF793FD044875
:1093D000FFF756FE034B00221A7003B05DF804FB42
:1093E000A04E0300D02F00202DE9F7430024DFF822
:1093F000589005460E46A0460DF107008DF80780EF
:10940000FDF754FD07F064FB074638B9324629469C
:109410004846FFF715FE044600F0AAFA9DF807003B
:10942000FDF768FD47B131462846FFF743FF42F29A
:1094300007039842044605D0022CDDD0204603B035
:10944000BDE8F0830524F9E7A04E0300F8B5054612
:109450000C4604B9F8BD402C264628BF4026F7B27A
:1094600039462846FFF7C0FF0028F9D1A41B354430
:10947000EFE70000044A137923B9012110609180BD
:109480001846704785207047D42F0020074B1A6874
:10949000D2075FBFC02283F8002301221A604FF079
:1094A00080430122C3F81825704700BF00E100E0A7
:1094B000044B01221A604FF08042D2F81834DB03CB
:1094C000FBD470470C000040154B07B51A687AB101
:1094D00000221A601B680093009B4FF0804301221A
:1094E000C3F808230F4B587910B95A711B68984775
:1094F0000D4B1A6882B100221A601B680193019B10
:109500004FF080430222C3F80823064B1B6801205A
:1095100003B05DF804EB184703B05DF804FB00BF2F
:1095200000010040D42F00200401004000F18040E1
:1095300000F5C040002382B0036003680193019BE3
:1095400002B07047800000F1A040D0F8002722F45C
:109550004032C0F80027D0F8003743EA0141C0F894
:1095600000177047054B4FF0FF32072843F82020C3
:1095700084BFC01880F84820704700BFDC2F00204F
:1095800010B5174C94F8583043BB04F13003202138
:10959000FF22013911F0FF0103F8012BF9D1C8B204
:1095A000FFF7E0FF01310C29F9D1042200210D4819
:1095B00008F0A2FA0C4BC02283F8062340221A605E
:1095C0004FF4BE70FFF7B2FF084B4FF00042C3F8F4
:1095D0000423012384F85830002010BD0820FCE744
:1095E000DC2F00203030002000E100E0006000406F
:1095F000034B93F85800003818BF0120704700BF94
:10960000DC2F0020F0B5364D2C1894F93040002C9A
:1096100064DA8C78C4F34004002C0BBF08230023C9
:109620000C260826B34201D10420F0BD55F8237062
:1096300001373FD12E1845F8232086F8303014B971
:10964000EA1882F848008A78540713D4D60733D52D
:10965000820002F1A042D2F8004724F00204C2F8CE
:109660000047204EC20800F007070124BC40B75C49
:109670003C43B4548A780C7812F0020225D09B0047
:1096800003F1804303F5C0430202D3F8101521F41F
:10969000473121F44071C3F810152404D3F8101594
:1096A00002F4F85204F4403422430A43C3F810256C
:1096B0000020BAE70133B5E74C7800F5E0724FF0CF
:1096C000A046A40046F82240CBE7083B2B4493F881
:1096D000501041EA841483F85040E9E70820A4E7D9
:1096E000DC2F00203030002038B51F4C251895F9AC
:1096F0003020072A16DD224492F848309B09032BBC
:109700000BD14FF0A043D3F81015C14001F0010177
:109710000231BDE83840FFF715BF012B0CBF022115
:109720000321F6E7D3B2072B1CD8930003F1804343
:1097300003F5C043D3F8100540F00100C3F810054D
:1097400002F14000800080B2FFF7F0FE51B195F9C0
:10975000303054F823302BB1012303FA02F2034BCB
:10976000C3F8042338BD00BFDC2F00200060004098
:109770004FF0A043D3F8103523FA00F000F00100B9
:10978000704700002DE9F04F87B000245A4D039434
:109790004FF48072012102F1804303F5C04390B27F
:1097A0001B68012B06D1D5F804330B4202D0FFF71A
:1097B000BDFE0C430432B2F5907F4FEA4101EAD17D
:1097C0004E4B1B68012B0AD14FF4BE70FFF7AEFE63
:1097D0004FF0A04344F00044D3F81035039314F045
:1097E000FF0F1AD0464F00250126344210D0AB009F
:1097F00003F1804303F5C043D3F81005D3F81015E7
:1098000057F8253023B1C1F30141C0F30420984734
:109810000135082D4FEA4606E7D1002C65DA002114
:109820004FF0FF33CDE90413354D01274FF0000A07
:10983000344ED1464FF0A04816F9013B5A1C45D092
:10984000C3F3C20106AA5018DCB210F8042C03F0CE
:109850003F0B03F0070307FA03F31A4236D005EB78
:109860000B02A40992F9302055F8222052B9032C9A
:109870002CD10DF1100E1EF801C04CEA030C0EF8AD
:1098800001C001E0032CF4D00BF5E07110F80C0CD2
:1098900058F821101842C1F3014105D0022915D111
:1098A000032C0FD1214604E003290FD1032C09D149
:1098B00002215846019209F10109FFF743FE019A7E
:1098C0005FFA89F912B12146584690470AF1010A18
:1098D000BAF1040FB0D1B9F1000F06D04FF0A04398
:1098E000039AD3F81035934202D107B0BDE8F08F48
:1098F0000393049B059399E7006000407C6100405E
:10990000DC2F00202C300020014B1B68184700BFC3
:109910003830002010B5124C2278FAB9114B19607A
:10992000037813F0010F104B1EBFD3F8042542F04B
:109930000102C3F80425D3F8002222F00102C3F883
:1099400000224378094A5B01DBB282F80D334FF401
:109950000053136001232370002010BD8520FCE715
:10996000443000204030002000D0004000E100E002
:10997000064B00221A6082B01B680193019B044BC6
:109980000122C3F804231A6002B0704700D10040DE
:1099900000D00040024A0123C2F8083353607047E8
:1099A00000D00040064A0123C2F808335360054B3B
:1099B0004FF40052C3F88020034B00221A70704706
:1099C00000D0004000E100E044300020074B0022BE
:1099D0001A6082B01B680193019B054BD3F8080500
:1099E000044B1B68C0B202B0184700BF00D1004052
:1099F00000D0004040300020054A4FF0A043105CEA
:109A0000D3F8043523FA00F0C04300F0010070479A
:109A100014580300044B1A5C012393404FF0A042FA
:109A2000C2F80C35704700BF14580300044B1A5C91
:109A3000012393404FF0A042C2F80835704700BFA1
:109A40001458030008B50020FFF7F0FF0120FFF7CE
:109A5000EDFF0220FFF7EAFFBDE808400320FFF713
:109A6000E5BF08B50020FFF7D5FF0120FFF7D2FFC3
:109A70000220FFF7CFFFBDE808400320FFF7CABF71
:109A8000074A4FF0A041105CD1F804350122824012
:109A900022EA03001340C1F80805C1F80C357047ED
:109AA000145803007047000007B5044B0093044AA4
:109AB000402300F032F803B05DF804FBC59A0200C1
:109AC000463000202DE9F84388461446B2B10F4BCA
:109AD0000F4E0325002743F00109224608EB07013A
:109AE000002001F049FD0744241A48B933782BB10E
:109AF0004FF47A40C847013D02D13570BDE8F88384
:109B000001233370002CE8D1F8E700BF2058030090
:109B100045300020704701F063BDF0B595B01D469B
:109B2000164608460C46FFF785F91A9B0D93CDE9BA
:109B3000086500252B46082205A920460A958DF8C0
:109B40002C500C95FFF793F9079B0293069B039308
:109B50009DF814308DF8115003F00302012A1DD135
:109B6000BDF81420059DC3F3C203C2F383168DF81C
:109B70001030B20008230EA92046FFF778F9C5F38C
:109B8000952508AB0093324602AB0EA9284600F09B
:109B90007FFB2046FFF752F915B0F0BD022AF8D13D
:109BA000BDF81650C3F3C203C5F389158DF8103004
:109BB0000827082D2E4628BF08263B4632460EA908
:109BC0002046FFF754F9AD1B08AB02AA31460EA898
:109BD000374400F0C1FB002DEBD1DAE708B5FFF701
:109BE0009AFF0448042100F0BBFA034B01225A718A
:109BF00008BD00BFF84F0300EC2B0020037813F0E2
:109C0000040216D003F00303012B03D0022B09D06A
:109C1000012070470A6800880232C0F383100244B2
:109C20000A60F5E70B684288023303EB92130B607E
:109C3000EEE71046704700002DE9F04F87B0002393
:109C40000446861C0DF107000F4615468DF80730B7
:109C5000FDF72CF9454801683960D0E90132134419
:109C600001335B1A824600F21C4700F5836900F25B
:109C70001448B3421CD30020002D73D004F00F030E
:109C80009B0143F0050363F30F00DAF80020DAF8D4
:109C900008301340033316444AF823009DF80700A8
:109CA000CAF80060FDF726F9012007B0BDE8F08F83
:109CB00001213846FEF732FB4846FEF74AFB404694
:109CC000FEF747FBDAF80400DAF808B0029000EA81
:109CD0000B0003300AEB800002A9FFF78FFF029B05
:109CE00050BB0BEA03020AEB820203F1020CD268BA
:109CF0000392013303EA0B0B0AEB8B0B02F0030216
:109D0000012ADBF80C10CDF808C023D0022A16D0A7
:109D100083464046FEF720FB10B1029BCAF8043090
:109D200059463846FEF7FAFADAE901231344DAF81D
:109D3000002001339B1A9CE70BEA0300C9E7BDF83A
:109D40000E30C3F3891303334FEA114B0CEB93032B
:109D50000293DEE7BDF80C30C3F383134FEA114BD7
:109D60006344F5E7A40544F006008EE7583100206F
:109D70000B4B0C48FF2210B59A600022C3F8182440
:109D8000C3E90022C3F81424012283F82024FFF73A
:109D90000AF8044610B90448FFF786F9204610BDBA
:109DA00058310020E44E03005C58030030B50A4CE3
:109DB00071B10A4A0A49121BD20800239A4201D102
:109DC000002030BD31F82350854202D00133F5E741
:109DD000034654F83300F4E7004F0300F84F030044
:109DE000E42B0020094B013903EBC000032909D8FB
:109DF000DFE801F00A02040604207047007970478A
:109E0000407970470020704702207047004F0300E0
:109E1000034BD3E90030C31A58425841704700BF82
:109E2000583100202DE9F04387B0FFF7F1FF0646D7
:109E3000002840F0F9807D4DC5F81804BFF34F8F1E
:109E40006B68AC6802932340033305EB830002A9DF
:109E5000FFF7D4FE029B18B1D5F81824002A5FD072
:109E600004EA0302991C013305EB8202234005EB4F
:109E70008303D268DB68049302F00303022B03928E
:109E8000029160D1BDF80E306948C3F38917502F95
:109E9000B84628BF4FF0500868F38F1308F1080147
:109EA000ADF80E30FEF797FF0646002800F0A780B9
:109EB000FEF7C0FF0023082203A93046FEF7CDFFBE
:109EC000029924EA01020132B8EB820F4FEA8203C1
:109ED00032D95FFA88F85BB32140DCB2A8EB040802
:109EE00003315FFA88F9A046524C05EB8101082343
:109EF00042463046FEF7B1FF34B108F108034A4646
:109F000021463046FEF7A9FF029B033703EB970774
:109F10000297D5F81834002B49D1D5F8104459E0F0
:109F20002A689A428FD86A60304607B0BDE8F0834D
:109F300040491C469946DAE70C40E11C082342469A
:109F400005EB8101DDE7012B59D1BDF80C30384814
:109F5000C3F38311062928BF062161F38913023157
:109F60008900ADF80C30FEF736FF0646002846D0D3
:109F7000FEF760FF0023082203A93046FEF76DFFBD
:109F80000027BDF80C20C2F38312BB00974203F1F7
:109F90000803BED202994A1C21400331029205EB0C
:109FA000810104223046FEF758FF0137E9E73046C9
:109FB000FEF744FFFFF72CFF80F00100C6B2B3E7C5
:109FC000E3685B7923B1236831461B6820469847D4
:109FD000E3681C68002CF3D13046FEF72FFF0DF12B
:109FE00007008DF80740FCF761FFD5F818340BB96E
:109FF000029B6B609DF80700FCF77CFFDAE7D5F861
:10A00000104454B90C4B0D480D49C01AC008000447
:10A0100040F0020000F062F8CCE7236820469B681D
:10A020009847E3681C68ECE700267DE7583100207C
:10A03000E44E030064310020004F0300304F030062
:10A04000445803002DE9F74F224D04460F4692462F
:10A0500001A901221846D5F808909B46FFF7ECFDB0
:10A0600020B3019E4FF00008B21CD84508EB020156
:10A0700026D119480021FEF70AF980F310000004E8
:10A0800040EA1440E400731C04F0380403EA0903B6
:10A0900006EA090644F0010405EB8303033644EAAB
:10A0A000881444EA8724D86045F8264095F820347F
:10A0B0001BB1FFF7B7FE0028FBD103B0BDE8F08F5E
:10A0C00009EA010105EB81015AF82830CB6008F15B
:10A0D0000108CAE7583100207435002000231A46D1
:10A0E000FFF7B0BF07B50123019201AAFFF7AAFF4E
:10A0F00003B05DF804FB07B5CDE9002302236A46EF
:10A10000FFF7A0FF03B05DF804FB1FB5CDE9012305
:10A11000069B039301AA0323FFF794FF05B05DF8A4
:10A1200004FB1FB5CDE90023069B0293079B039315
:10A130006A460423FFF786FF05B05DF804FB7FB590
:10A14000CDE90123089B0393099B04930A9B059384
:10A1500001AA0523FFF776FF07B05DF804FB0000B6
:10A1600030B50F49D1F8102403460020144634B905
:10A17000DC6820714AB9C1F81034226030BDE4684F
:10A180002579854206D02468F1E7D26811682160FC
:10A190001360F3E701300A28E8D14FF0FF30EDE714
:10A1A00058310020094A38B50123D2F8104482F80A
:10A1B00020341D4604B938BDE3685D71236820462C
:10A1C0005B689847E3681C68F4E700BF58310020DB
:10A1D00007B503460846197A052911D05B7A2BB1D9
:10A1E000094A0A490190FEF71AF9019808490190B5
:10A1F000FEF715F9019803B05DF804EBFEF704B91A
:10A20000002AF8D0F2E700BF685803005F8C030013
:10A210008A58030030B5C38885B004460D4633B173
:10A22000144A00921449154A2846FEF7F8F8217A94
:10A2300005291DD0637A4BB1A088FFF7D3FD104BE1
:10A24000104953F820202846FEF7E9F8227A0E4BF1
:10A25000A08853F8222003920021FFF7A7FD039A5C
:10A260000A490346284605B0BDE83040FEF7D7B896
:10A2700005B030BD68580300755803006D580300E1
:10A28000F45803005F8C0300185903008D58030035
:10A290002DE9F04385B01F460C9D002395F80C90E6
:10A2A0002B7306460C46904629463846FFF7B2FF08
:10A2B000B8F1060F09D8DFE808F00412181F283398
:10A2C000400031462846FEF7AAF8002229463846C3
:10A2D000FFF77EFF85F80C9005B0BDE8F08322689B
:10A2E00031462846FEF79BF8EFE7D4E900233146D4
:10A2F0002846FEF794F8E8E7A36800933146D4E9CE
:10A3000000232846FEF78BF8DFE7E3680193A36894
:10A3100000933146D4E900232846FEF780F8D4E7BD
:10A3200023690293E3680193A36800933146D4E95B
:10A3300000232846FEF773F8C7E763690393236990
:10A340000293E3680193A36800933146D4E90023A4
:10A350002846FEF764F8B8E708292DE9F74F80464C
:10A360000E4617461C463CD8002593F80C901D73EA
:10A3700019461046FFF74EFFDFF888A0DFF888B0D7
:10A38000AE4231D918F8052059462046FEF747F865
:10A390000135082DF4D11949194DDFF870A0204678
:10A3A000FEF73DF84FF0000B5E4522D918F80B2060
:10A3B0007E2A05D81046019207F020FB019A00B9C9
:10A3C0002E2251462046FEF72AF80BF1010BBBF175
:10A3D000080FE9D1012221463846FFF7F9FE84F83B
:10A3E0000C9003B0BDE8F08F51462046FEF717F8F9
:10A3F000CEE729462046FEF712F8E6E7A15803000B
:10A400009F5803009D58030097580300A35803006A
:10A410004FF48C72002107F06FBB20B100F58C73F4
:10A420000022984200D1704700F8012BF9E70000A4
:10A43000C02AF0B541D0B2F5807F40D0802A40F0EC
:10A44000C5800A230446036000F10803520944F85A
:10A45000043F01EB82028A4233D103680C2B3ED0C9
:10A460000E2B6CD00A2B26D15A4D5B4900F1A00669
:10A47000426955F8044B8768C2F307237C40CB5CE4
:10A480006340140E10300C5D83EA0443D4B20C5DBB
:10A4900083EA0463C2F307440C5D83EA042350F8A3
:10A4A000044C836063400468C360634003615340AD
:10A4B00043618642DCD100208AE00C23C2E70E23F0
:10A4C000C0E78B784D781B0443EA05230D782B43B6
:10A4D000CD7843EA056344F8043F0431BBE73D4CC3
:10A4E0003D4900F1C005C26954F8046B8768C2F3A6
:10A4F00007237E40CB5C7340160E18308E5D83EAD6
:10A500000643D6B28E5D83EA0663C2F307468E5DCC
:10A5100083EA062350F80C6C8360734050F8086C93
:10A52000C360734050F8046C036173400668436174
:10A53000734083615340C3618542D4D1BBE7254D4D
:10A54000254900F1E006446A55F8042B8768C4F3F6
:10A5500007237A40CB5C87695340220E20308A5C07
:10A5600083EA0243E2B28A5C83EA0263C4F30742ED
:10A570008A5C83EA022350F8142C8360534050F81D
:10A58000102CC360534050F80C2C03615340DAB2D6
:10A5900043618A5C7A401F0ECF5D82EA0762C3F393
:10A5A0000727C3F30743CF5DCB5C82EA072282EA29
:10A5B000034350F8042C836153400268C361534045
:10A5C0000362634043628642BDD174E76FF01F00AF
:10A5D000F0BD00BF2C6A03002C5903002DE9F04F99
:10A5E00047680D683B684C688E68C968DFF89882D8
:10A5F000DFF898E2DFF898C25D407B685C40BB689A
:10A600005E40FB684B4001688FB0491001390091F2
:10A6100007F1300151F8107C0197EFB251F8200C8E
:10A6200058F8277087EA00091F0E95485EF82770D2
:10A6300089EA0709C4F307274FEA146B5CF827700F
:10A640005EF82BB089EA0709C6F30747203150F8B6
:10A65000277089EA0709E7B25FFA89F058F827708E
:10A66000029051F83C0C87EA000A2F0E84485EF8ED
:10A6700027708AEA070AC6F30727C4F307445CF881
:10A6800027708AEA070AC3F3074750F827708AEA57
:10A69000070AF7B2CAF3072058F82770039051F859
:10A6A000380C474087EA0B07C3F3072B74485CF864
:10A6B0002BB087EA0B07C5F3074BDBB250F82BB082
:10A6C00058F8233087EA0B07C7F30740360E04908B
:10A6D00051F8340C5EF82660C5F3072543406848FE
:10A6E00073405CF8256050F8244051F82C0C05901C
:10A6F00073406340C3F30740069051F8280C07905D
:10A70000F8B20890C3F3072009901D0EC9F3074063
:10A71000DBB20A900D93009B4FEA1A600B90002B5E
:10A7200051F8240C0C905FFA8AF4C7F3072B4FEA18
:10A730001966CAF3074AC9F307294FEA17675CDCB1
:10A740005049039B019811F803C0029B0C5DCB5C40
:10A7500043400498085C83EA0C2383EA0043485D85
:10A76000059D83EA006311F80B0013706C4084EAC6
:10A7700000240698089D085C4D5D84EA0044885DCD
:10A78000079E84EA00640998085C754085EA002504
:10A790000A980C9E085C85EA00450B98085C85EADF
:10A7A00000650D98085C704011F8096080EA062089
:10A7B00011F80A60C95D80EA064080EA0161180A62
:10A7C0005070180C1B0E9070D370230A5371230C19
:10A7D00093712B0A53722B0C93720B0A147115721E
:10A7E000240E2D0E117353730B0C090ED471D572F8
:10A7F0009373D1730FB0BDE8F08F029B5EF82550C4
:10A8000058F823301E4858F824405EF827706B40F3
:10A81000019D6B40039D5CF825505D40049B50F802
:10A8200023305D405EF826305C40059B5C405CF860
:10A830002B305C40069B50F823305C40089B58F856
:10A8400023600B9B5EF823305E40079B5E40099BB4
:10A850005CF823305E400A9B50F823305E400D9B2D
:10A8600058F823307B400C9F7B405CF829707B407C
:10A8700050F82A707B40009F013F0097CAE600BF56
:10A880002C6203002C5903002C5A03002C66030091
:10A890002C5E03002DE9F04F47680C683B684E685A
:10A8A0008D68C968DFF89C82DFF89CE2DFF89CC203
:10A8B0005C407B685E40BB685D40FB684B40016864
:10A8C0008FB049100139009107F13001E7B251F81A
:10A8D000100C58F82770019051F8200C87EA0009F5
:10A8E000370E96485EF8277089EA0709C3F30727F1
:10A8F0004FEA136B5CF827705EF82BB089EA070902
:10A90000C5F30747203150F8277089EA0709DFB2FD
:10A910005FFA89F058F82770029051F8340C87EAF2
:10A92000000A270E85485EF827708AEA070AC5F3F1
:10A930000727C3F307435CF827708AEA070AC6F3C0
:10A94000074750F827708AEA070AEFB2CAF30720D0
:10A9500058F82770039051F8380C474087EA0B07E6
:10A96000C6F3072B75485CF82BB087EA0B07C4F3D6
:10A97000074BF6B250F82BB058F8266087EA0B0761
:10A98000C7F307402D0E049051F83C0C5EF825509B
:10A99000C4F30724464069486E405CF8245050F8E0
:10A9A000233051F8280C07906E405E40F8B251F801
:10A9B0002C3C0890C6F3072005930990CAF307437F
:10A9C000C9F3074006930A904FEA1A600B9051F8BA
:10A9D000240C0C90C6F307400D9000980028C9F392
:10A9E000072B4FEA17634FEA1664F5B25FFA8AFA4B
:10A9F000C7F307274FEA19695CDC51490398019EA8
:10AA000011F800C00298085C7040049E8E5D80EAD8
:10AA10000C2080EA06400E5D11F80B4080EA0660CB
:10AA20004E5D059D10706E4086EA0426069C0C5D06
:10AA300086EA0446CC5C099B86EA0464CE5C089BEB
:10AA4000CD5C079B5D400A9BCB5C85EA062585EAC9
:10AA500003450B9B0C9ECB5C85EA036511F80A301D
:10AA60007340CE5D83EA06230D9E8E5D11F80910BA
:10AA700083EA064383EA0163010A5170010C917075
:10AA8000000E210AD0705171210C9171290A517266
:10AA9000290C9172190A14711572240E2D0E13735C
:10AAA0005173190C1B0ED471D5729173D3730FB0FF
:10AAB000BDE8F08F029E5EF8244058F826601F48DB
:10AAC0005EF823305EF829905CF827707440019E90
:10AAD0007440039E5CF826607440049E50F8266023
:10AAE000744058F825605E40059B5E405CF82B3052
:10AAF0005E40069B50F823305E40089B58F8235078
:10AB00000B9B5EF823305D40079B5D40099B5CF822
:10AB100023305D400A9B50F823300C985D4058F874
:10AB20002A3083EA090343407B400D98034F57F8CE
:10AB30002070009801387B400090C7E654730300F2
:10AB4000546A0300546B030054770300546F0300EE
:10AB500010B50C46012C11461A4603D1FFF73EFDF5
:10AB6000002010BDFFF796FEFAE72DE9F041B2F59F
:10AB7000C07FADF5467D06460F4615467BD84FF49F
:10AB8000D07200215EA806F0B7FF18A8FFF740FCBE
:10AB90000DF5C8786BBA2A460024ADF88A313946DB
:10ABA000302340468DF88F31ADF8884106F07BFFA9
:10ABB000802304AA08F8053011461935234602F807
:10ABC000013B0133202BFAD14FF4807218A8FFF714
:10ABD0002FFC002410220021684606F08DFFA846B5
:10ABE0000DF287136A46A3F11007117817F8010FC9
:10ABF00041409F4202F8011BF7D1B8F1100F6B469C
:10AC000094BFA8EB0808A8F110086A46012118A80B
:10AC1000FFF79EFF07F11003B8F1000FE2D10CAB74
:10AC200018191022694606F03EFF9DF87B3110345A
:10AC30000133302C8DF87B31CCD14FF480720CA9CC
:10AC400018A8FFF7F5FB06F1300414AB1A460121F2
:10AC500018A8FFF77DFF3046102214A9103606F021
:10AC600022FFB442F1D118A8FFF7D7FB00200DF561
:10AC7000467DBDE8F0816FF03700F8E72DE9F0413F
:10AC80008CB004460D4630220021684606F034FFA1
:10AC90004FF0000804F120076E460DEB080304F1A5
:10ACA0000F010A780132D2B2084601F801290AB927
:10ACB000A042F6D122460121384608F11008FFF7DC
:10ACC00047FFB8F1300FE7D16B1E2F35327813F8FC
:10ACD000011F4A40AB4206F8012BF7D169464FF4F9
:10ACE00080723846FFF7A4FB102208A9204606F020
:10ACF000DAFE00200CB0BDE8F0814FF4A072002114
:10AD000006F0FABE10B5044638B12030FFF785FBD7
:10AD100004F5A07300229C4200D110BD04F8012B61
:10AD2000F9E72DE9F0418369B3F5C07FE0B004464F
:10AD3000884616462DD8C3F5C073934229D34FF4E5
:10AD4000C0720021684606F0D7FED4F83831A269F7
:10AD5000D4F83C01694698470546E8B9A769B8F1B7
:10AD6000000F07D036B10DEB07003246414606F022
:10AD70009AFE37443A4669466846FFF7F6FE69464A
:10AD80002046FFF77BFF01232361284660B0BDE822
:10AD9000F0816FF03705F8E76FF03305F5E7F0B5B0
:10ADA0008BB004460F4616460021202202A81D46FD
:10ADB00006F0A2FE04F120000190FFF729FB119B91
:10ADC000A36142F21073E36102A9C4E94E760198CF
:10ADD0004FF48072FFF72CFB109A29462046FFF7AC
:10ADE000A0FF0BB0F0BD13B530240194049C009477
:10ADF000FFF7D5FF02B010BD2DE9F04190B0B2F5DC
:10AE0000806FDDF8588004460E4615461F464DD823
:10AE1000B8F5807F4DD83022002104A806F06CFEE2
:10AE20002269E3699A4201DC636943B142463946CB
:10AE30002046FFF776FF70B110B0BDE8F081B8F1A1
:10AE4000000F08D03946424604A8FFF78EFE04A939
:10AE50002046FFF713FF04F1200745B904A9204657
:10AE6000FFF70CFF2369013323612846E4E704F16F
:10AE70000F0213780133DBB2114602F801390BB926
:10AE8000A142F6D16B46224601213846FFF760FE0B
:10AE9000102DA84628BF4FF010083046424669469C
:10AEA00006F001FE4644A5EB0805D6E76FF0350035
:10AEB000C2E76FF03700BFE707B500230093FFF745
:10AEC0009BFF03B05DF804FB28B139B10023C1E951
:10AED00000301846704748F21050704748F213503F
:10AEE000704738B1006848F24053884214BF184692
:10AEF0000020704748F21050704730B119B10B680C
:10AF0000934205D30A600020704748F213507047FF
:10AF100048F21450704700002DE9F041884600AF18
:10AF200006461146404614461D46FFF7CDFFF8B9C8
:10AF300029464046FFF7C8FFD0B998F804200F4BC8
:10AF400053F82230BBB156B90D4931F8121031B166
:10AF500007316A46C908A2EBC10295466E462A46E9
:10AF600021463046984718B9064B2360063B2B60B4
:10AF7000BD46BDE8F08148F20350F9E75C7B030071
:10AF8000547B03007652464D70B505460C461E466E
:10AF9000FFF79AFF70B9AB796AB1B3420ED1297944
:10AFA000094B53F8213063B111462046984708B940
:10AFB000064B236070BD48F21050FBE748F2115079
:10AFC000F8E748F20350F5E7687B03007052464DFE
:10AFD0002DE9F0410D460D4904461646FFF781FF65
:10AFE00090B967683146BA792846FFF786FF58B9A5
:10AFF0003A79074B53F8223023B129462046BDE861
:10B00000F041184748F20350BDE8F0817052464DB8
:10B01000747B0300F0B528B14079D9B18AB948F200
:10B02000135315E01846F8E7441E00254E5D0F5DEA
:10B03000575516550135013CA542F7D91B1A014455
:10B0400002448342F0D2002B48F2115218BF13463B
:10B050001846F0BD48F21053FAE700002DE9F84316
:10B060000D4600AF04461D49284616469846FFF790
:10B0700038FF48BB1A493046FFF733FF20BBD5F8ED
:10B0800004907368994522D199F80520396A4046A1
:10B09000FFF733FFC0B999F80430124A52F82390F1
:10B0A000B9F1000F16D054B90F4A32F8133033B14A
:10B0B00007336A46DB08A2EBC3039D466C46434652
:10B0C000324629462046C847BD46BDE8F88348F2C7
:10B0D0004150F9E748F20350F6E700BF7652464D7B
:10B0E0007052464D807B0300887B0300F8B50A4F01
:10B0F0000A4C0B4DE41B0121E40829700026A642EE
:10B1000003D102232B700020F8BD57F83630984742
:10B110000028F9D10136F2E7F84E0300004F030092
:10B1200014360020054B1A78022A04D01878431EE2
:10B130005842584170470120704700BF1436002024
:10B1400030B50023934201D1012006E0C55CCC5C00
:10B15000A54203D08CBF0120002030BD0133F1E7B0
:10B160002DE9F74F9DF830B01E4605468846174634
:10B1700000239E424FEAC30903F101024CD1FF2391
:10B18000D2005B0033F0FF0103D109F101094A4508
:10B19000F7D1002D45D0002E46D0B8F1000F46D093
:10B1A000002F44D0324641463846FFF7C9FF0028F9
:10B1B00040D009F007030093009AFF2313415BB2CC
:10B1C0004FEAD90A019305EBD9091C485B46006890
:10B1D00032462946FBF7E4FA0446C8B9014652460E
:10B1E000284606F089FC009B2BB199F80020019BB2
:10B1F0001A4089F80020324641462846FFF7A0FF52
:10B200000028E2D029463846FFF79AFF0028DCD014
:10B21000204603B0BDE8F08FFB5C002BB0D1134695
:10B22000A7E748F21354F3E748F21454F0E748F262
:10B230001054EDE748F21754EAE700BF64370020E6
:10B2400013B501240094FFF78BFF02B010BD00007E
:10B2500070B51B4B6A469A4206460D4605D3FFF76A
:10B2600061FF78B94FF4054070BD164B1648174979
:10B27000C01AC008000440F00100FEF72FFF48F29A
:10B280001950F1E7124C236823B1124B1A68124B84
:10B290009A420FD086B97DB9104811492060FBF75A
:10B2A0005BFA0028E0D10B4B0B4A1A6023680D4A69
:10B2B0001A60D9E70020D7E748F21750D4E700BF5B
:10B2C00000E00020004F0300304F03008C7B0300A0
:10B2D000643700205C3700206572E54B183600208B
:10B2E000603700206169614D094B0A4A1968914233
:10B2F0000AD1094A1068094A0168914204D1002222
:10B3000002601A60FBF744BA48F20250704700BF6F
:10B310005C3700206572E54B643700206169614D40
:10B3200010B5164B6C469C420FD3DAB9144B1C680F
:10B33000144B9C421BD1E8B913481346BDE810409A
:10B340000A4600681149FBF733BA114B11481249FC
:10B35000C01AC008000440F00100FEF7BFFE48F22A
:10B36000195010BD0029E1D148F21050F9E748F218
:10B370000250F6E748F21750F3E700BF00E0002064
:10B380005C3700206572E54B643700206037002091
:10B39000004F0300304F03008C7B030073B513464E
:10B3A0000D460446F8B111B3144A1168144A91428B
:10B3B00020D1144E01932A4601463068FBF7F0F97C
:10B3C00048F27152904210D1002211461046FFF708
:10B3D000A7FF50B9019B30682A46214602B0BDE85C
:10B3E0007040FBF7DDB948F2135002B070BD48F26F
:10B3F0001450FAE748F20250F7E700BF5C3700202C
:10B400006572E54B643700200122FFF7C7BF704724
:10B4100010B5064C2068431C236005F0A1FE23688C
:10B42000C82BC4BF3C23236010BD00BFF42B0020F9
:10B4300008B506F021F906F013F906F05BF805F0FF
:10B44000A7FE06F0F3F94FF47A71074806F0A4F866
:10B450000648142106F0A0F806F052F90028FBD1A6
:10B4600005F070FEF8E700BF11B402000FB402004F
:10B470000369C1688B429DBF8268D21802F1FF3216
:10B4800003F1FF3394BF501A581A70472DE9F8435F
:10B49000D0E902940546A9EB040840689045204491
:10B4A0000F46144404D906F0FEFAEC60BDE8F883B8
:10B4B0004246A4EB090406F0F6FA6868224607EB58
:10B4C0000801F0E72DE9F843C568064689461746A6
:10B4D0004FF000083469B3687068A54228BFE418CB
:10B4E000013C621B5C1BBC4228BF3C46944228BF07
:10B4F000144649462844224606F0D5FAB368254446
:10B50000AB4208BF00253F1BA044A144F560E1D138
:10B510004046BDE8F883000010B5114C114AA26105
:10B520000223C4E90433104BE361A2644FF40073B7
:10B530000E4A0F492362E26400231022E01DA36239
:10B540006362E362A3656365E365226506F007FB5A
:10B550000849204606F003FB2023A37110BD00BF5D
:10B5600068370020A57B0300F0370020E03700207B
:10B57000AE7B0300B27B0300F8B5184C182300FB28
:10B58000033503FB00402544C46A012C0F461646D0
:10B590000FD0022C1AD0F4B92846FFF769FF864273
:10B5A00005D8324639462846FFF770FF3446204614
:10B5B000F8BD2846FFF75CFF8642344628BF0446A4
:10B5C000224639462846FFF761FFF0E72846BDE8E6
:10B5D000F840FFF777BF0024E9E700BF6837002095
:10B5E000FFF79ABF0C4B1B78062B10D10B4B1B6837
:10B5F0001A070CD10A4B186800F0F003302B08D062
:10B6000000F0E000A0F1400358425841704700208C
:10B6100070470120704700BFE00F00F0E40F00F01A
:10B62000E80F00F0094B1B78062B0CD1084B1B6868
:10B630001A0708D1074B186800F0F000A0F130039A
:10B640005842584170470020704700BFE00F00F09B
:10B65000E40F00F0E80F00F008B5FFF7C3FF28B1D2
:10B660007D4B7E4A1B68C3F304231360FFF7DAFFA8
:10B6700010B17B4B7B4A1A60FFF7B4FF28B17A4BBD
:10B680007A4A1B68C3F342331360FFF7CBFF20B144
:10B69000774AD36823F08073D360FFF7A3FF40B1EC
:10B6A0004FF080430022C3F80C21C3F81021C3F8E7
:10B6B0003825FFF7B7FF10B16E4B03221A60FFF772
:10B6C000B1FF40B16C4B05221A6001229A6700223B
:10B6D0009A603F225A60694B1B78062B50D1684B09
:10B6E0001B6819074CD1674B1B6803F0F003502B04
:10B6F00046D14FF08052644BD2F80414C3F82015A1
:10B70000D2F80814C3F82415D2F80C14C3F828157D
:10B71000D2F81014C3F82C15D2F81414C3F830154D
:10B72000D2F81814C3F83415D2F81C14C3F8401515
:10B73000D2F82014C3F84415D2F82414C3F84815DD
:10B74000D2F82814C3F84C15D2F82C14C3F85015AD
:10B75000D2F83014C3F85415D2F83414C3F8601575
:10B76000D2F83814C3F86415D2F83C14C3F868153D
:10B77000D2F84014C3F86C15D2F84424C3F87025ED
:10B78000FFF730FF28B1414B414A1B6803F04F03DC
:10B790001360FFF727FF48B14FF08043D3F8002430
:10B7A000D20744BF6FF00102C3F80024394B1B6875
:10B7B000062B08D1384B1B68062B01BF374A13688C
:10B7C00043F480631360364AD2F8883043F4700340
:10B7D000C2F88830BFF34F8FBFF36F8F4FF0102345
:10B7E000D3F80022002A03DBD3F80432002B2FDA2F
:10B7F0002C4B0122C3F80425D3F80024002AFBD0E7
:10B800004FF010221521C2F80012D3F80024002AAC
:10B81000FBD04FF010231522C3F80422214B1A4607
:10B82000D3F800140029FBD00021C3F80415D2F886
:10B830000034002BFBD0BFF34F8F19491A4BCA6855
:10B8400002F4E0621343CB60BFF34F8F00BFFDE70C
:10B85000164B174A1A6008BD2403001040350140FA
:10B8600074C007400DF0ADBA440200103C05004022
:10B87000F0ED00E0A005004010560040E00F00F0A1
:10B88000E40F00F0E80F00F000C000405802001084
:10B89000E40E004030010010340100103C1700405D
:10B8A00000ED00E000E001400400FA05F82B002064
:10B8B0000090D00370B51C4B002501462E464FF07A
:10B8C000FF309A7C72B15A7CC2B1DA688A4205D9DB
:10B8D000521ADA60904228BF104603E01A7C5E7468
:10B8E00032B99A740135082D03F11403E9D170BD02
:10B8F000B0F5203F28BF4FF42030F3E71C7C0CB993
:10B900009C74EFE79A680A44B2F5203F9A6024BF1E
:10B91000A2F520329A609A6824BF04F1FF341C74A7
:10B92000C2F52032D6E700BFF039002010B5FFF78E
:10B93000C1FF0446FBF7E8F90C4B1860631C14D0F8
:10B940000B4822462146FBF7BCF970B1FDF710FC0D
:10B95000084B0949024609481B1ADB081B04BDE8CD
:10B96000104043F00200FEF7BDBB10BDB03A00200E
:10B97000903A0020984F0300B97B0300004F03006A
:10B98000024A03480021FBF791B900BF2DB902001C
:10B990007C7C03002DE9F04F85B002A9054601F03B
:10B9A000B7FE80B1FDF7E4FB514C524902465248C4
:10B9B000241AE40824042B4644F00200FEF79BFB03
:10B9C00005B0BDE8F08F4D48FBF793F9074668B125
:10B9D000FDF7CEFB464B4A49024647481B1ADB0897
:10B9E0001B0443F00200FEF77DFBE9E7454CFBF743
:10B9F0008BF92168FBF783F9FFF75CFF0646FBF73D
:10BA000083F92060404C01230825A2464FF47A7840
:10BA10004FF00009A27C002A5AD00622611C0DF1C9
:10BA20000900019305F0EFFF019B10BB237C4FF44D
:10BA30007A629A40B2F57A4FBCBF0133DBB24FF461
:10BA40007A6199404FF40040C346CC46C0FB01BC2C
:10BA500000222374A26000234FF4FA625846614624
:10BA600005F00CFF012386426374E06028BF0646A0
:10BA700000230137082F04F11404CBD1A3B3082D00
:10BA800028D0142404FB05A4072202A9204606F0AE
:10BA90000AF84FF480339E424FF00002C4E90223BB
:10BAA00028BF1E464FF4807323820123A3741348DA
:10BAB00032463146FBF705F9002881D0FDF758FBE7
:10BAC0000B4B124902460C481B1ADB081B0488E783
:10BAD0003D46CEE70648084B0D49C01AC008000491
